{
	"contracts/Product.sol": {
		"Tienda": {
			"abi": [
				{
					"inputs": [
						{
							"internalType": "uint256",
							"name": "_id",
							"type": "uint256"
						},
						{
							"internalType": "enum Tienda.Estado",
							"name": "nuevoEstado",
							"type": "uint8"
						}
					],
					"name": "cambiarestado",
					"outputs": [],
					"stateMutability": "nonpayable",
					"type": "function"
				},
				{
					"inputs": [
						{
							"internalType": "uint256",
							"name": "_id",
							"type": "uint256"
						}
					],
					"name": "comprar",
					"outputs": [],
					"stateMutability": "payable",
					"type": "function"
				},
				{
					"inputs": [
						{
							"internalType": "uint256",
							"name": "_id",
							"type": "uint256"
						},
						{
							"internalType": "string",
							"name": "_nombre",
							"type": "string"
						},
						{
							"internalType": "enum Tienda.Estado",
							"name": "_estado",
							"type": "uint8"
						},
						{
							"internalType": "uint256",
							"name": "_cantidad",
							"type": "uint256"
						},
						{
							"internalType": "uint256",
							"name": "_preciowei",
							"type": "uint256"
						}
					],
					"name": "crearProducto",
					"outputs": [],
					"stateMutability": "nonpayable",
					"type": "function"
				},
				{
					"inputs": [
						{
							"internalType": "uint256",
							"name": "",
							"type": "uint256"
						}
					],
					"name": "productos",
					"outputs": [
						{
							"internalType": "string",
							"name": "nombre",
							"type": "string"
						},
						{
							"internalType": "uint256",
							"name": "cantidad",
							"type": "uint256"
						},
						{
							"internalType": "enum Tienda.Estado",
							"name": "estado",
							"type": "uint8"
						},
						{
							"internalType": "address payable",
							"name": "creador",
							"type": "address"
						},
						{
							"internalType": "uint256",
							"name": "preciowei",
							"type": "uint256"
						}
					],
					"stateMutability": "view",
					"type": "function"
				}
			],
			"devdoc": {
				"kind": "dev",
				"methods": {},
				"version": 1
			},
			"evm": {
				"assembly": "    /* \"contracts/Product.sol\":74:2047  contract Tienda {... */\n  mstore(0x40, 0x80)\n  callvalue\n  dup1\n  iszero\n  tag_1\n  jumpi\n  0x00\n  dup1\n  revert\ntag_1:\n  pop\n  dataSize(sub_0)\n  dup1\n  dataOffset(sub_0)\n  0x00\n  codecopy\n  0x00\n  return\nstop\n\nsub_0: assembly {\n        /* \"contracts/Product.sol\":74:2047  contract Tienda {... */\n      mstore(0x40, 0x80)\n      jumpi(tag_1, lt(calldatasize, 0x04))\n      shr(0xe0, calldataload(0x00))\n      dup1\n      0x02bcd335\n      eq\n      tag_2\n      jumpi\n      dup1\n      0x445ff3dc\n      eq\n      tag_3\n      jumpi\n      dup1\n      0x979a01dd\n      eq\n      tag_4\n      jumpi\n      dup1\n      0x99553636\n      eq\n      tag_5\n      jumpi\n    tag_1:\n      0x00\n      dup1\n      revert\n        /* \"contracts/Product.sol\":373:686  function comprar(uint _id) public payable esCliente (_id) productoValido(_id)... */\n    tag_2:\n      tag_6\n      0x04\n      dup1\n      calldatasize\n      sub\n      dup2\n      add\n      swap1\n      tag_7\n      swap2\n      swap1\n      tag_8\n      jump\t// in\n    tag_7:\n      tag_9\n      jump\t// in\n    tag_6:\n      stop\n        /* \"contracts/Product.sol\":1802:2029  function crearProducto (uint _id, string memory _nombre, Estado _estado, uint _cantidad, uint _preciowei) public ... */\n    tag_3:\n      callvalue\n      dup1\n      iszero\n      tag_10\n      jumpi\n      0x00\n      dup1\n      revert\n    tag_10:\n      pop\n      tag_11\n      0x04\n      dup1\n      calldatasize\n      sub\n      dup2\n      add\n      swap1\n      tag_12\n      swap2\n      swap1\n      tag_13\n      jump\t// in\n    tag_12:\n      tag_14\n      jump\t// in\n    tag_11:\n      stop\n        /* \"contracts/Product.sol\":1658:1794  function cambiarestado (uint _id, Estado nuevoEstado) public esCreador(_id) ... */\n    tag_4:\n      callvalue\n      dup1\n      iszero\n      tag_15\n      jumpi\n      0x00\n      dup1\n      revert\n    tag_15:\n      pop\n      tag_16\n      0x04\n      dup1\n      calldatasize\n      sub\n      dup2\n      add\n      swap1\n      tag_17\n      swap2\n      swap1\n      tag_18\n      jump\t// in\n    tag_17:\n      tag_19\n      jump\t// in\n    tag_16:\n      stop\n        /* \"contracts/Product.sol\":173:216  mapping (uint => Producto) public productos */\n    tag_5:\n      callvalue\n      dup1\n      iszero\n      tag_20\n      jumpi\n      0x00\n      dup1\n      revert\n    tag_20:\n      pop\n      tag_21\n      0x04\n      dup1\n      calldatasize\n      sub\n      dup2\n      add\n      swap1\n      tag_22\n      swap2\n      swap1\n      tag_8\n      jump\t// in\n    tag_22:\n      tag_23\n      jump\t// in\n    tag_21:\n      mload(0x40)\n      tag_24\n      swap6\n      swap5\n      swap4\n      swap3\n      swap2\n      swap1\n      tag_25\n      jump\t// in\n    tag_24:\n      mload(0x40)\n      dup1\n      swap2\n      sub\n      swap1\n      return\n        /* \"contracts/Product.sol\":373:686  function comprar(uint _id) public payable esCliente (_id) productoValido(_id)... */\n    tag_9:\n        /* \"contracts/Product.sol\":426:429  _id */\n      dup1\n        /* \"contracts/Product.sol\":986:995  productos */\n      0x00\n        /* \"contracts/Product.sol\":986:1000  productos[_id] */\n      dup1\n        /* \"contracts/Product.sol\":996:999  _id */\n      dup3\n        /* \"contracts/Product.sol\":986:1000  productos[_id] */\n      dup2\n      mstore\n      0x20\n      add\n      swap1\n      dup2\n      mstore\n      0x20\n      add\n      0x00\n      keccak256\n        /* \"contracts/Product.sol\":986:1008  productos[_id].creador */\n      0x02\n      add\n      0x01\n      swap1\n      sload\n      swap1\n      0x0100\n      exp\n      swap1\n      div\n      0xffffffffffffffffffffffffffffffffffffffff\n      and\n        /* \"contracts/Product.sol\":972:1008  msg.sender != productos[_id].creador */\n      0xffffffffffffffffffffffffffffffffffffffff\n      and\n        /* \"contracts/Product.sol\":972:982  msg.sender */\n      caller\n        /* \"contracts/Product.sol\":972:1008  msg.sender != productos[_id].creador */\n      0xffffffffffffffffffffffffffffffffffffffff\n      and\n      sub\n        /* \"contracts/Product.sol\":950:1084  require(... */\n      tag_27\n      jumpi\n      mload(0x40)\n      0x08c379a000000000000000000000000000000000000000000000000000000000\n      dup2\n      mstore\n      0x04\n      add\n      tag_28\n      swap1\n      tag_29\n      jump\t// in\n    tag_28:\n      mload(0x40)\n      dup1\n      swap2\n      sub\n      swap1\n      revert\n    tag_27:\n        /* \"contracts/Product.sol\":446:449  _id */\n      dup2\n        /* \"contracts/Product.sol\":1213:1231  Estado.Desactivado */\n      0x01\n        /* \"contracts/Product.sol\":1188:1231  productos[_id].estado != Estado.Desactivado */\n      0x02\n      dup2\n      gt\n      iszero\n      tag_31\n      jumpi\n      tag_32\n      tag_33\n      jump\t// in\n    tag_32:\n    tag_31:\n        /* \"contracts/Product.sol\":1188:1197  productos */\n      0x00\n        /* \"contracts/Product.sol\":1188:1202  productos[_id] */\n      dup1\n        /* \"contracts/Product.sol\":1198:1201  _id */\n      dup4\n        /* \"contracts/Product.sol\":1188:1202  productos[_id] */\n      dup2\n      mstore\n      0x20\n      add\n      swap1\n      dup2\n      mstore\n      0x20\n      add\n      0x00\n      keccak256\n        /* \"contracts/Product.sol\":1188:1209  productos[_id].estado */\n      0x02\n      add\n      0x00\n      swap1\n      sload\n      swap1\n      0x0100\n      exp\n      swap1\n      div\n      0xff\n      and\n        /* \"contracts/Product.sol\":1188:1231  productos[_id].estado != Estado.Desactivado */\n      0x02\n      dup2\n      gt\n      iszero\n      tag_34\n      jumpi\n      tag_35\n      tag_33\n      jump\t// in\n    tag_35:\n    tag_34:\n      sub\n        /* \"contracts/Product.sol\":1166:1290  require(... */\n      tag_36\n      jumpi\n      mload(0x40)\n      0x08c379a000000000000000000000000000000000000000000000000000000000\n      dup2\n      mstore\n      0x04\n      add\n      tag_37\n      swap1\n      tag_38\n      jump\t// in\n    tag_37:\n      mload(0x40)\n      dup1\n      swap2\n      sub\n      swap1\n      revert\n    tag_36:\n        /* \"contracts/Product.sol\":1349:1350  0 */\n      0x00\n        /* \"contracts/Product.sol\":1323:1332  productos */\n      dup1\n        /* \"contracts/Product.sol\":1323:1337  productos[_id] */\n      0x00\n        /* \"contracts/Product.sol\":1333:1336  _id */\n      dup4\n        /* \"contracts/Product.sol\":1323:1337  productos[_id] */\n      dup2\n      mstore\n      0x20\n      add\n      swap1\n      dup2\n      mstore\n      0x20\n      add\n      0x00\n      keccak256\n        /* \"contracts/Product.sol\":1323:1346  productos[_id].cantidad */\n      0x01\n      add\n      sload\n        /* \"contracts/Product.sol\":1323:1350  productos[_id].cantidad > 0 */\n      gt\n        /* \"contracts/Product.sol\":1301:1415  require(... */\n      tag_39\n      jumpi\n      mload(0x40)\n      0x08c379a000000000000000000000000000000000000000000000000000000000\n      dup2\n      mstore\n      0x04\n      add\n      tag_40\n      swap1\n      tag_41\n      jump\t// in\n    tag_40:\n      mload(0x40)\n      dup1\n      swap2\n      sub\n      swap1\n      revert\n    tag_39:\n        /* \"contracts/Product.sol\":502:511  productos */\n      0x00\n        /* \"contracts/Product.sol\":502:516  productos[_id] */\n      dup1\n        /* \"contracts/Product.sol\":512:515  _id */\n      dup5\n        /* \"contracts/Product.sol\":502:516  productos[_id] */\n      dup2\n      mstore\n      0x20\n      add\n      swap1\n      dup2\n      mstore\n      0x20\n      add\n      0x00\n      keccak256\n        /* \"contracts/Product.sol\":502:526  productos[_id].preciowei */\n      0x03\n      add\n      sload\n        /* \"contracts/Product.sol\":489:498  msg.value */\n      callvalue\n        /* \"contracts/Product.sol\":489:526  msg.value >= productos[_id].preciowei */\n      lt\n      iszero\n        /* \"contracts/Product.sol\":467:588  require(... */\n      tag_43\n      jumpi\n      mload(0x40)\n      0x08c379a000000000000000000000000000000000000000000000000000000000\n      dup2\n      mstore\n      0x04\n      add\n      tag_44\n      swap1\n      tag_45\n      jump\t// in\n    tag_44:\n      mload(0x40)\n      dup1\n      swap2\n      sub\n      swap1\n      revert\n    tag_43:\n        /* \"contracts/Product.sol\":599:608  productos */\n      0x00\n        /* \"contracts/Product.sol\":599:613  productos[_id] */\n      dup1\n        /* \"contracts/Product.sol\":609:612  _id */\n      dup5\n        /* \"contracts/Product.sol\":599:613  productos[_id] */\n      dup2\n      mstore\n      0x20\n      add\n      swap1\n      dup2\n      mstore\n      0x20\n      add\n      0x00\n      keccak256\n        /* \"contracts/Product.sol\":599:621  productos[_id].creador */\n      0x02\n      add\n      0x01\n      swap1\n      sload\n      swap1\n      0x0100\n      exp\n      swap1\n      div\n      0xffffffffffffffffffffffffffffffffffffffff\n      and\n        /* \"contracts/Product.sol\":599:630  productos[_id].creador.transfer */\n      0xffffffffffffffffffffffffffffffffffffffff\n      and\n        /* \"contracts/Product.sol\":599:641  productos[_id].creador.transfer(msg.value) */\n      0x08fc\n        /* \"contracts/Product.sol\":631:640  msg.value */\n      callvalue\n        /* \"contracts/Product.sol\":599:641  productos[_id].creador.transfer(msg.value) */\n      swap1\n      dup2\n      iszero\n      mul\n      swap1\n      mload(0x40)\n      0x00\n      mload(0x40)\n      dup1\n      dup4\n      sub\n      dup2\n      dup6\n      dup9\n      dup9\n      call\n      swap4\n      pop\n      pop\n      pop\n      pop\n      iszero\n      dup1\n      iszero\n      tag_47\n      jumpi\n      returndatasize\n      0x00\n      dup1\n      returndatacopy\n      revert(0x00, returndatasize)\n    tag_47:\n      pop\n        /* \"contracts/Product.sol\":652:661  productos */\n      0x00\n        /* \"contracts/Product.sol\":652:666  productos[_id] */\n      dup1\n        /* \"contracts/Product.sol\":662:665  _id */\n      dup5\n        /* \"contracts/Product.sol\":652:666  productos[_id] */\n      dup2\n      mstore\n      0x20\n      add\n      swap1\n      dup2\n      mstore\n      0x20\n      add\n      0x00\n      keccak256\n        /* \"contracts/Product.sol\":652:675  productos[_id].cantidad */\n      0x01\n      add\n      0x00\n        /* \"contracts/Product.sol\":652:678  productos[_id].cantidad -- */\n      dup2\n      sload\n      dup1\n      swap3\n      swap2\n      swap1\n      tag_48\n      swap1\n      tag_49\n      jump\t// in\n    tag_48:\n      swap2\n      swap1\n      pop\n      sstore\n      pop\n        /* \"contracts/Product.sol\":1095:1096  _ */\n      pop\n        /* \"contracts/Product.sol\":373:686  function comprar(uint _id) public payable esCliente (_id) productoValido(_id)... */\n      pop\n      pop\n      jump\t// out\n        /* \"contracts/Product.sol\":1802:2029  function crearProducto (uint _id, string memory _nombre, Estado _estado, uint _cantidad, uint _preciowei) public ... */\n    tag_14:\n        /* \"contracts/Product.sol\":1950:2021  Producto(_nombre, _cantidad, _estado, payable (msg.sender), _preciowei) */\n      mload(0x40)\n      dup1\n      0xa0\n      add\n      0x40\n      mstore\n      dup1\n        /* \"contracts/Product.sol\":1959:1966  _nombre */\n      dup6\n        /* \"contracts/Product.sol\":1950:2021  Producto(_nombre, _cantidad, _estado, payable (msg.sender), _preciowei) */\n      dup2\n      mstore\n      0x20\n      add\n        /* \"contracts/Product.sol\":1968:1977  _cantidad */\n      dup4\n        /* \"contracts/Product.sol\":1950:2021  Producto(_nombre, _cantidad, _estado, payable (msg.sender), _preciowei) */\n      dup2\n      mstore\n      0x20\n      add\n        /* \"contracts/Product.sol\":1979:1986  _estado */\n      dup5\n        /* \"contracts/Product.sol\":1950:2021  Producto(_nombre, _cantidad, _estado, payable (msg.sender), _preciowei) */\n      0x02\n      dup2\n      gt\n      iszero\n      tag_51\n      jumpi\n      tag_52\n      tag_33\n      jump\t// in\n    tag_52:\n    tag_51:\n      dup2\n      mstore\n      0x20\n      add\n        /* \"contracts/Product.sol\":1997:2007  msg.sender */\n      caller\n        /* \"contracts/Product.sol\":1950:2021  Producto(_nombre, _cantidad, _estado, payable (msg.sender), _preciowei) */\n      0xffffffffffffffffffffffffffffffffffffffff\n      and\n      dup2\n      mstore\n      0x20\n      add\n        /* \"contracts/Product.sol\":2010:2020  _preciowei */\n      dup3\n        /* \"contracts/Product.sol\":1950:2021  Producto(_nombre, _cantidad, _estado, payable (msg.sender), _preciowei) */\n      dup2\n      mstore\n      pop\n        /* \"contracts/Product.sol\":1932:1941  productos */\n      0x00\n        /* \"contracts/Product.sol\":1932:1947  productos [_id] */\n      dup1\n        /* \"contracts/Product.sol\":1943:1946  _id */\n      dup8\n        /* \"contracts/Product.sol\":1932:1947  productos [_id] */\n      dup2\n      mstore\n      0x20\n      add\n      swap1\n      dup2\n      mstore\n      0x20\n      add\n      0x00\n      keccak256\n        /* \"contracts/Product.sol\":1932:2021  productos [_id] = Producto(_nombre, _cantidad, _estado, payable (msg.sender), _preciowei) */\n      0x00\n      dup3\n      add\n      mload\n      dup2\n      0x00\n      add\n      swap1\n      dup2\n      tag_53\n      swap2\n      swap1\n      tag_54\n      jump\t// in\n    tag_53:\n      pop\n      0x20\n      dup3\n      add\n      mload\n      dup2\n      0x01\n      add\n      sstore\n      0x40\n      dup3\n      add\n      mload\n      dup2\n      0x02\n      add\n      exp(0x0100, 0x00)\n      dup2\n      sload\n      dup2\n      0xff\n      mul\n      not\n      and\n      swap1\n      dup4\n      0x02\n      dup2\n      gt\n      iszero\n      tag_55\n      jumpi\n      tag_56\n      tag_33\n      jump\t// in\n    tag_56:\n    tag_55:\n      mul\n      or\n      swap1\n      sstore\n      pop\n      0x60\n      dup3\n      add\n      mload\n      dup2\n      0x02\n      add\n      exp(0x0100, 0x01)\n      dup2\n      sload\n      dup2\n      0xffffffffffffffffffffffffffffffffffffffff\n      mul\n      not\n      and\n      swap1\n      dup4\n      0xffffffffffffffffffffffffffffffffffffffff\n      and\n      mul\n      or\n      swap1\n      sstore\n      pop\n      0x80\n      dup3\n      add\n      mload\n      dup2\n      0x03\n      add\n      sstore\n      swap1\n      pop\n      pop\n        /* \"contracts/Product.sol\":1802:2029  function crearProducto (uint _id, string memory _nombre, Estado _estado, uint _cantidad, uint _preciowei) public ... */\n      pop\n      pop\n      pop\n      pop\n      pop\n      jump\t// out\n        /* \"contracts/Product.sol\":1658:1794  function cambiarestado (uint _id, Estado nuevoEstado) public esCreador(_id) ... */\n    tag_19:\n        /* \"contracts/Product.sol\":1729:1732  _id */\n      dup2\n        /* \"contracts/Product.sol\":776:785  productos */\n      0x00\n        /* \"contracts/Product.sol\":776:790  productos[_id] */\n      dup1\n        /* \"contracts/Product.sol\":786:789  _id */\n      dup3\n        /* \"contracts/Product.sol\":776:790  productos[_id] */\n      dup2\n      mstore\n      0x20\n      add\n      swap1\n      dup2\n      mstore\n      0x20\n      add\n      0x00\n      keccak256\n        /* \"contracts/Product.sol\":776:798  productos[_id].creador */\n      0x02\n      add\n      0x01\n      swap1\n      sload\n      swap1\n      0x0100\n      exp\n      swap1\n      div\n      0xffffffffffffffffffffffffffffffffffffffff\n      and\n        /* \"contracts/Product.sol\":762:798  msg.sender == productos[_id].creador */\n      0xffffffffffffffffffffffffffffffffffffffff\n      and\n        /* \"contracts/Product.sol\":762:772  msg.sender */\n      caller\n        /* \"contracts/Product.sol\":762:798  msg.sender == productos[_id].creador */\n      0xffffffffffffffffffffffffffffffffffffffff\n      and\n      eq\n        /* \"contracts/Product.sol\":740:874  require(... */\n      tag_58\n      jumpi\n      mload(0x40)\n      0x08c379a000000000000000000000000000000000000000000000000000000000\n      dup2\n      mstore\n      0x04\n      add\n      tag_59\n      swap1\n      tag_60\n      jump\t// in\n    tag_59:\n      mload(0x40)\n      dup1\n      swap2\n      sub\n      swap1\n      revert\n    tag_58:\n        /* \"contracts/Product.sol\":1775:1786  nuevoEstado */\n      dup2\n        /* \"contracts/Product.sol\":1751:1760  productos */\n      0x00\n        /* \"contracts/Product.sol\":1751:1765  productos[_id] */\n      dup1\n        /* \"contracts/Product.sol\":1761:1764  _id */\n      dup6\n        /* \"contracts/Product.sol\":1751:1765  productos[_id] */\n      dup2\n      mstore\n      0x20\n      add\n      swap1\n      dup2\n      mstore\n      0x20\n      add\n      0x00\n      keccak256\n        /* \"contracts/Product.sol\":1751:1772  productos[_id].estado */\n      0x02\n      add\n      0x00\n        /* \"contracts/Product.sol\":1751:1786  productos[_id].estado = nuevoEstado */\n      0x0100\n      exp\n      dup2\n      sload\n      dup2\n      0xff\n      mul\n      not\n      and\n      swap1\n      dup4\n      0x02\n      dup2\n      gt\n      iszero\n      tag_62\n      jumpi\n      tag_63\n      tag_33\n      jump\t// in\n    tag_63:\n    tag_62:\n      mul\n      or\n      swap1\n      sstore\n      pop\n        /* \"contracts/Product.sol\":1658:1794  function cambiarestado (uint _id, Estado nuevoEstado) public esCreador(_id) ... */\n      pop\n      pop\n      pop\n      jump\t// out\n        /* \"contracts/Product.sol\":173:216  mapping (uint => Producto) public productos */\n    tag_23:\n      mstore(0x20, 0x00)\n      dup1\n      0x00\n      mstore\n      keccak256(0x00, 0x40)\n      0x00\n      swap2\n      pop\n      swap1\n      pop\n      dup1\n      0x00\n      add\n      dup1\n      sload\n      tag_64\n      swap1\n      tag_65\n      jump\t// in\n    tag_64:\n      dup1\n      0x1f\n      add\n      0x20\n      dup1\n      swap2\n      div\n      mul\n      0x20\n      add\n      mload(0x40)\n      swap1\n      dup2\n      add\n      0x40\n      mstore\n      dup1\n      swap3\n      swap2\n      swap1\n      dup2\n      dup2\n      mstore\n      0x20\n      add\n      dup3\n      dup1\n      sload\n      tag_66\n      swap1\n      tag_65\n      jump\t// in\n    tag_66:\n      dup1\n      iszero\n      tag_67\n      jumpi\n      dup1\n      0x1f\n      lt\n      tag_68\n      jumpi\n      0x0100\n      dup1\n      dup4\n      sload\n      div\n      mul\n      dup4\n      mstore\n      swap2\n      0x20\n      add\n      swap2\n      jump(tag_67)\n    tag_68:\n      dup3\n      add\n      swap2\n      swap1\n      0x00\n      mstore\n      keccak256(0x00, 0x20)\n      swap1\n    tag_69:\n      dup2\n      sload\n      dup2\n      mstore\n      swap1\n      0x01\n      add\n      swap1\n      0x20\n      add\n      dup1\n      dup4\n      gt\n      tag_69\n      jumpi\n      dup3\n      swap1\n      sub\n      0x1f\n      and\n      dup3\n      add\n      swap2\n    tag_67:\n      pop\n      pop\n      pop\n      pop\n      pop\n      swap1\n      dup1\n      0x01\n      add\n      sload\n      swap1\n      dup1\n      0x02\n      add\n      0x00\n      swap1\n      sload\n      swap1\n      0x0100\n      exp\n      swap1\n      div\n      0xff\n      and\n      swap1\n      dup1\n      0x02\n      add\n      0x01\n      swap1\n      sload\n      swap1\n      0x0100\n      exp\n      swap1\n      div\n      0xffffffffffffffffffffffffffffffffffffffff\n      and\n      swap1\n      dup1\n      0x03\n      add\n      sload\n      swap1\n      pop\n      dup6\n      jump\t// out\n        /* \"#utility.yul\":7:82   */\n    tag_70:\n        /* \"#utility.yul\":40:46   */\n      0x00\n        /* \"#utility.yul\":73:75   */\n      0x40\n        /* \"#utility.yul\":67:76   */\n      mload\n        /* \"#utility.yul\":57:76   */\n      swap1\n      pop\n        /* \"#utility.yul\":7:82   */\n      swap1\n      jump\t// out\n        /* \"#utility.yul\":88:205   */\n    tag_71:\n        /* \"#utility.yul\":197:198   */\n      0x00\n        /* \"#utility.yul\":194:195   */\n      dup1\n        /* \"#utility.yul\":187:199   */\n      revert\n        /* \"#utility.yul\":211:328   */\n    tag_72:\n        /* \"#utility.yul\":320:321   */\n      0x00\n        /* \"#utility.yul\":317:318   */\n      dup1\n        /* \"#utility.yul\":310:322   */\n      revert\n        /* \"#utility.yul\":334:411   */\n    tag_73:\n        /* \"#utility.yul\":371:378   */\n      0x00\n        /* \"#utility.yul\":400:405   */\n      dup2\n        /* \"#utility.yul\":389:405   */\n      swap1\n      pop\n        /* \"#utility.yul\":334:411   */\n      swap2\n      swap1\n      pop\n      jump\t// out\n        /* \"#utility.yul\":417:539   */\n    tag_74:\n        /* \"#utility.yul\":490:514   */\n      tag_133\n        /* \"#utility.yul\":508:513   */\n      dup2\n        /* \"#utility.yul\":490:514   */\n      tag_73\n      jump\t// in\n    tag_133:\n        /* \"#utility.yul\":483:488   */\n      dup2\n        /* \"#utility.yul\":480:515   */\n      eq\n        /* \"#utility.yul\":470:533   */\n      tag_134\n      jumpi\n        /* \"#utility.yul\":529:530   */\n      0x00\n        /* \"#utility.yul\":526:527   */\n      dup1\n        /* \"#utility.yul\":519:531   */\n      revert\n        /* \"#utility.yul\":470:533   */\n    tag_134:\n        /* \"#utility.yul\":417:539   */\n      pop\n      jump\t// out\n        /* \"#utility.yul\":545:684   */\n    tag_75:\n        /* \"#utility.yul\":591:596   */\n      0x00\n        /* \"#utility.yul\":629:635   */\n      dup2\n        /* \"#utility.yul\":616:636   */\n      calldataload\n        /* \"#utility.yul\":607:636   */\n      swap1\n      pop\n        /* \"#utility.yul\":645:678   */\n      tag_136\n        /* \"#utility.yul\":672:677   */\n      dup2\n        /* \"#utility.yul\":645:678   */\n      tag_74\n      jump\t// in\n    tag_136:\n        /* \"#utility.yul\":545:684   */\n      swap3\n      swap2\n      pop\n      pop\n      jump\t// out\n        /* \"#utility.yul\":690:1019   */\n    tag_8:\n        /* \"#utility.yul\":749:755   */\n      0x00\n        /* \"#utility.yul\":798:800   */\n      0x20\n        /* \"#utility.yul\":786:795   */\n      dup3\n        /* \"#utility.yul\":777:784   */\n      dup5\n        /* \"#utility.yul\":773:796   */\n      sub\n        /* \"#utility.yul\":769:801   */\n      slt\n        /* \"#utility.yul\":766:885   */\n      iszero\n      tag_138\n      jumpi\n        /* \"#utility.yul\":804:883   */\n      tag_139\n      tag_71\n      jump\t// in\n    tag_139:\n        /* \"#utility.yul\":766:885   */\n    tag_138:\n        /* \"#utility.yul\":924:925   */\n      0x00\n        /* \"#utility.yul\":949:1002   */\n      tag_140\n        /* \"#utility.yul\":994:1001   */\n      dup5\n        /* \"#utility.yul\":985:991   */\n      dup3\n        /* \"#utility.yul\":974:983   */\n      dup6\n        /* \"#utility.yul\":970:992   */\n      add\n        /* \"#utility.yul\":949:1002   */\n      tag_75\n      jump\t// in\n    tag_140:\n        /* \"#utility.yul\":939:1002   */\n      swap2\n      pop\n        /* \"#utility.yul\":895:1012   */\n      pop\n        /* \"#utility.yul\":690:1019   */\n      swap3\n      swap2\n      pop\n      pop\n      jump\t// out\n        /* \"#utility.yul\":1025:1142   */\n    tag_76:\n        /* \"#utility.yul\":1134:1135   */\n      0x00\n        /* \"#utility.yul\":1131:1132   */\n      dup1\n        /* \"#utility.yul\":1124:1136   */\n      revert\n        /* \"#utility.yul\":1148:1265   */\n    tag_77:\n        /* \"#utility.yul\":1257:1258   */\n      0x00\n        /* \"#utility.yul\":1254:1255   */\n      dup1\n        /* \"#utility.yul\":1247:1259   */\n      revert\n        /* \"#utility.yul\":1271:1373   */\n    tag_78:\n        /* \"#utility.yul\":1312:1318   */\n      0x00\n        /* \"#utility.yul\":1363:1365   */\n      0x1f\n        /* \"#utility.yul\":1359:1366   */\n      not\n        /* \"#utility.yul\":1354:1356   */\n      0x1f\n        /* \"#utility.yul\":1347:1352   */\n      dup4\n        /* \"#utility.yul\":1343:1357   */\n      add\n        /* \"#utility.yul\":1339:1367   */\n      and\n        /* \"#utility.yul\":1329:1367   */\n      swap1\n      pop\n        /* \"#utility.yul\":1271:1373   */\n      swap2\n      swap1\n      pop\n      jump\t// out\n        /* \"#utility.yul\":1379:1559   */\n    tag_79:\n        /* \"#utility.yul\":1427:1504   */\n      0x4e487b7100000000000000000000000000000000000000000000000000000000\n        /* \"#utility.yul\":1424:1425   */\n      0x00\n        /* \"#utility.yul\":1417:1505   */\n      mstore\n        /* \"#utility.yul\":1524:1528   */\n      0x41\n        /* \"#utility.yul\":1521:1522   */\n      0x04\n        /* \"#utility.yul\":1514:1529   */\n      mstore\n        /* \"#utility.yul\":1548:1552   */\n      0x24\n        /* \"#utility.yul\":1545:1546   */\n      0x00\n        /* \"#utility.yul\":1538:1553   */\n      revert\n        /* \"#utility.yul\":1565:1846   */\n    tag_80:\n        /* \"#utility.yul\":1648:1675   */\n      tag_146\n        /* \"#utility.yul\":1670:1674   */\n      dup3\n        /* \"#utility.yul\":1648:1675   */\n      tag_78\n      jump\t// in\n    tag_146:\n        /* \"#utility.yul\":1640:1646   */\n      dup2\n        /* \"#utility.yul\":1636:1676   */\n      add\n        /* \"#utility.yul\":1778:1784   */\n      dup2\n        /* \"#utility.yul\":1766:1776   */\n      dup2\n        /* \"#utility.yul\":1763:1785   */\n      lt\n        /* \"#utility.yul\":1742:1760   */\n      0xffffffffffffffff\n        /* \"#utility.yul\":1730:1740   */\n      dup3\n        /* \"#utility.yul\":1727:1761   */\n      gt\n        /* \"#utility.yul\":1724:1786   */\n      or\n        /* \"#utility.yul\":1721:1809   */\n      iszero\n      tag_147\n      jumpi\n        /* \"#utility.yul\":1789:1807   */\n      tag_148\n      tag_79\n      jump\t// in\n    tag_148:\n        /* \"#utility.yul\":1721:1809   */\n    tag_147:\n        /* \"#utility.yul\":1829:1839   */\n      dup1\n        /* \"#utility.yul\":1825:1827   */\n      0x40\n        /* \"#utility.yul\":1818:1840   */\n      mstore\n        /* \"#utility.yul\":1608:1846   */\n      pop\n        /* \"#utility.yul\":1565:1846   */\n      pop\n      pop\n      jump\t// out\n        /* \"#utility.yul\":1852:1981   */\n    tag_81:\n        /* \"#utility.yul\":1886:1892   */\n      0x00\n        /* \"#utility.yul\":1913:1933   */\n      tag_150\n      tag_70\n      jump\t// in\n    tag_150:\n        /* \"#utility.yul\":1903:1933   */\n      swap1\n      pop\n        /* \"#utility.yul\":1942:1975   */\n      tag_151\n        /* \"#utility.yul\":1970:1974   */\n      dup3\n        /* \"#utility.yul\":1962:1968   */\n      dup3\n        /* \"#utility.yul\":1942:1975   */\n      tag_80\n      jump\t// in\n    tag_151:\n        /* \"#utility.yul\":1852:1981   */\n      swap2\n      swap1\n      pop\n      jump\t// out\n        /* \"#utility.yul\":1987:2295   */\n    tag_82:\n        /* \"#utility.yul\":2049:2053   */\n      0x00\n        /* \"#utility.yul\":2139:2157   */\n      0xffffffffffffffff\n        /* \"#utility.yul\":2131:2137   */\n      dup3\n        /* \"#utility.yul\":2128:2158   */\n      gt\n        /* \"#utility.yul\":2125:2181   */\n      iszero\n      tag_153\n      jumpi\n        /* \"#utility.yul\":2161:2179   */\n      tag_154\n      tag_79\n      jump\t// in\n    tag_154:\n        /* \"#utility.yul\":2125:2181   */\n    tag_153:\n        /* \"#utility.yul\":2199:2228   */\n      tag_155\n        /* \"#utility.yul\":2221:2227   */\n      dup3\n        /* \"#utility.yul\":2199:2228   */\n      tag_78\n      jump\t// in\n    tag_155:\n        /* \"#utility.yul\":2191:2228   */\n      swap1\n      pop\n        /* \"#utility.yul\":2283:2287   */\n      0x20\n        /* \"#utility.yul\":2277:2281   */\n      dup2\n        /* \"#utility.yul\":2273:2288   */\n      add\n        /* \"#utility.yul\":2265:2288   */\n      swap1\n      pop\n        /* \"#utility.yul\":1987:2295   */\n      swap2\n      swap1\n      pop\n      jump\t// out\n        /* \"#utility.yul\":2301:2449   */\n    tag_83:\n        /* \"#utility.yul\":2399:2405   */\n      dup3\n        /* \"#utility.yul\":2394:2397   */\n      dup2\n        /* \"#utility.yul\":2389:2392   */\n      dup4\n        /* \"#utility.yul\":2376:2406   */\n      calldatacopy\n        /* \"#utility.yul\":2440:2441   */\n      0x00\n        /* \"#utility.yul\":2431:2437   */\n      dup4\n        /* \"#utility.yul\":2426:2429   */\n      dup4\n        /* \"#utility.yul\":2422:2438   */\n      add\n        /* \"#utility.yul\":2415:2442   */\n      mstore\n        /* \"#utility.yul\":2301:2449   */\n      pop\n      pop\n      pop\n      jump\t// out\n        /* \"#utility.yul\":2455:2880   */\n    tag_84:\n        /* \"#utility.yul\":2533:2538   */\n      0x00\n        /* \"#utility.yul\":2558:2624   */\n      tag_158\n        /* \"#utility.yul\":2574:2623   */\n      tag_159\n        /* \"#utility.yul\":2616:2622   */\n      dup5\n        /* \"#utility.yul\":2574:2623   */\n      tag_82\n      jump\t// in\n    tag_159:\n        /* \"#utility.yul\":2558:2624   */\n      tag_81\n      jump\t// in\n    tag_158:\n        /* \"#utility.yul\":2549:2624   */\n      swap1\n      pop\n        /* \"#utility.yul\":2647:2653   */\n      dup3\n        /* \"#utility.yul\":2640:2645   */\n      dup2\n        /* \"#utility.yul\":2633:2654   */\n      mstore\n        /* \"#utility.yul\":2685:2689   */\n      0x20\n        /* \"#utility.yul\":2678:2683   */\n      dup2\n        /* \"#utility.yul\":2674:2690   */\n      add\n        /* \"#utility.yul\":2723:2726   */\n      dup5\n        /* \"#utility.yul\":2714:2720   */\n      dup5\n        /* \"#utility.yul\":2709:2712   */\n      dup5\n        /* \"#utility.yul\":2705:2721   */\n      add\n        /* \"#utility.yul\":2702:2727   */\n      gt\n        /* \"#utility.yul\":2699:2811   */\n      iszero\n      tag_160\n      jumpi\n        /* \"#utility.yul\":2730:2809   */\n      tag_161\n      tag_77\n      jump\t// in\n    tag_161:\n        /* \"#utility.yul\":2699:2811   */\n    tag_160:\n        /* \"#utility.yul\":2820:2874   */\n      tag_162\n        /* \"#utility.yul\":2867:2873   */\n      dup5\n        /* \"#utility.yul\":2862:2865   */\n      dup3\n        /* \"#utility.yul\":2857:2860   */\n      dup6\n        /* \"#utility.yul\":2820:2874   */\n      tag_83\n      jump\t// in\n    tag_162:\n        /* \"#utility.yul\":2539:2880   */\n      pop\n        /* \"#utility.yul\":2455:2880   */\n      swap4\n      swap3\n      pop\n      pop\n      pop\n      jump\t// out\n        /* \"#utility.yul\":2900:3240   */\n    tag_85:\n        /* \"#utility.yul\":2956:2961   */\n      0x00\n        /* \"#utility.yul\":3005:3008   */\n      dup3\n        /* \"#utility.yul\":2998:3002   */\n      0x1f\n        /* \"#utility.yul\":2990:2996   */\n      dup4\n        /* \"#utility.yul\":2986:3003   */\n      add\n        /* \"#utility.yul\":2982:3009   */\n      slt\n        /* \"#utility.yul\":2972:3094   */\n      tag_164\n      jumpi\n        /* \"#utility.yul\":3013:3092   */\n      tag_165\n      tag_76\n      jump\t// in\n    tag_165:\n        /* \"#utility.yul\":2972:3094   */\n    tag_164:\n        /* \"#utility.yul\":3130:3136   */\n      dup2\n        /* \"#utility.yul\":3117:3137   */\n      calldataload\n        /* \"#utility.yul\":3155:3234   */\n      tag_166\n        /* \"#utility.yul\":3230:3233   */\n      dup5\n        /* \"#utility.yul\":3222:3228   */\n      dup3\n        /* \"#utility.yul\":3215:3219   */\n      0x20\n        /* \"#utility.yul\":3207:3213   */\n      dup7\n        /* \"#utility.yul\":3203:3220   */\n      add\n        /* \"#utility.yul\":3155:3234   */\n      tag_84\n      jump\t// in\n    tag_166:\n        /* \"#utility.yul\":3146:3234   */\n      swap2\n      pop\n        /* \"#utility.yul\":2962:3240   */\n      pop\n        /* \"#utility.yul\":2900:3240   */\n      swap3\n      swap2\n      pop\n      pop\n      jump\t// out\n        /* \"#utility.yul\":3246:3353   */\n    tag_86:\n        /* \"#utility.yul\":3327:3328   */\n      0x03\n        /* \"#utility.yul\":3320:3325   */\n      dup2\n        /* \"#utility.yul\":3317:3329   */\n      lt\n        /* \"#utility.yul\":3307:3347   */\n      tag_168\n      jumpi\n        /* \"#utility.yul\":3343:3344   */\n      0x00\n        /* \"#utility.yul\":3340:3341   */\n      dup1\n        /* \"#utility.yul\":3333:3345   */\n      revert\n        /* \"#utility.yul\":3307:3347   */\n    tag_168:\n        /* \"#utility.yul\":3246:3353   */\n      pop\n      jump\t// out\n        /* \"#utility.yul\":3359:3514   */\n    tag_87:\n        /* \"#utility.yul\":3413:3418   */\n      0x00\n        /* \"#utility.yul\":3451:3457   */\n      dup2\n        /* \"#utility.yul\":3438:3458   */\n      calldataload\n        /* \"#utility.yul\":3429:3458   */\n      swap1\n      pop\n        /* \"#utility.yul\":3467:3508   */\n      tag_170\n        /* \"#utility.yul\":3502:3507   */\n      dup2\n        /* \"#utility.yul\":3467:3508   */\n      tag_86\n      jump\t// in\n    tag_170:\n        /* \"#utility.yul\":3359:3514   */\n      swap3\n      swap2\n      pop\n      pop\n      jump\t// out\n        /* \"#utility.yul\":3520:4627   */\n    tag_13:\n        /* \"#utility.yul\":3633:3639   */\n      0x00\n        /* \"#utility.yul\":3641:3647   */\n      dup1\n        /* \"#utility.yul\":3649:3655   */\n      0x00\n        /* \"#utility.yul\":3657:3663   */\n      dup1\n        /* \"#utility.yul\":3665:3671   */\n      0x00\n        /* \"#utility.yul\":3714:3717   */\n      0xa0\n        /* \"#utility.yul\":3702:3711   */\n      dup7\n        /* \"#utility.yul\":3693:3700   */\n      dup9\n        /* \"#utility.yul\":3689:3712   */\n      sub\n        /* \"#utility.yul\":3685:3718   */\n      slt\n        /* \"#utility.yul\":3682:3802   */\n      iszero\n      tag_172\n      jumpi\n        /* \"#utility.yul\":3721:3800   */\n      tag_173\n      tag_71\n      jump\t// in\n    tag_173:\n        /* \"#utility.yul\":3682:3802   */\n    tag_172:\n        /* \"#utility.yul\":3841:3842   */\n      0x00\n        /* \"#utility.yul\":3866:3919   */\n      tag_174\n        /* \"#utility.yul\":3911:3918   */\n      dup9\n        /* \"#utility.yul\":3902:3908   */\n      dup3\n        /* \"#utility.yul\":3891:3900   */\n      dup10\n        /* \"#utility.yul\":3887:3909   */\n      add\n        /* \"#utility.yul\":3866:3919   */\n      tag_75\n      jump\t// in\n    tag_174:\n        /* \"#utility.yul\":3856:3919   */\n      swap6\n      pop\n        /* \"#utility.yul\":3812:3929   */\n      pop\n        /* \"#utility.yul\":3996:3998   */\n      0x20\n        /* \"#utility.yul\":3985:3994   */\n      dup7\n        /* \"#utility.yul\":3981:3999   */\n      add\n        /* \"#utility.yul\":3968:4000   */\n      calldataload\n        /* \"#utility.yul\":4027:4045   */\n      0xffffffffffffffff\n        /* \"#utility.yul\":4019:4025   */\n      dup2\n        /* \"#utility.yul\":4016:4046   */\n      gt\n        /* \"#utility.yul\":4013:4130   */\n      iszero\n      tag_175\n      jumpi\n        /* \"#utility.yul\":4049:4128   */\n      tag_176\n      tag_72\n      jump\t// in\n    tag_176:\n        /* \"#utility.yul\":4013:4130   */\n    tag_175:\n        /* \"#utility.yul\":4154:4217   */\n      tag_177\n        /* \"#utility.yul\":4209:4216   */\n      dup9\n        /* \"#utility.yul\":4200:4206   */\n      dup3\n        /* \"#utility.yul\":4189:4198   */\n      dup10\n        /* \"#utility.yul\":4185:4207   */\n      add\n        /* \"#utility.yul\":4154:4217   */\n      tag_85\n      jump\t// in\n    tag_177:\n        /* \"#utility.yul\":4144:4217   */\n      swap5\n      pop\n        /* \"#utility.yul\":3939:4227   */\n      pop\n        /* \"#utility.yul\":4266:4268   */\n      0x40\n        /* \"#utility.yul\":4292:4353   */\n      tag_178\n        /* \"#utility.yul\":4345:4352   */\n      dup9\n        /* \"#utility.yul\":4336:4342   */\n      dup3\n        /* \"#utility.yul\":4325:4334   */\n      dup10\n        /* \"#utility.yul\":4321:4343   */\n      add\n        /* \"#utility.yul\":4292:4353   */\n      tag_87\n      jump\t// in\n    tag_178:\n        /* \"#utility.yul\":4282:4353   */\n      swap4\n      pop\n        /* \"#utility.yul\":4237:4363   */\n      pop\n        /* \"#utility.yul\":4402:4404   */\n      0x60\n        /* \"#utility.yul\":4428:4481   */\n      tag_179\n        /* \"#utility.yul\":4473:4480   */\n      dup9\n        /* \"#utility.yul\":4464:4470   */\n      dup3\n        /* \"#utility.yul\":4453:4462   */\n      dup10\n        /* \"#utility.yul\":4449:4471   */\n      add\n        /* \"#utility.yul\":4428:4481   */\n      tag_75\n      jump\t// in\n    tag_179:\n        /* \"#utility.yul\":4418:4481   */\n      swap3\n      pop\n        /* \"#utility.yul\":4373:4491   */\n      pop\n        /* \"#utility.yul\":4530:4533   */\n      0x80\n        /* \"#utility.yul\":4557:4610   */\n      tag_180\n        /* \"#utility.yul\":4602:4609   */\n      dup9\n        /* \"#utility.yul\":4593:4599   */\n      dup3\n        /* \"#utility.yul\":4582:4591   */\n      dup10\n        /* \"#utility.yul\":4578:4600   */\n      add\n        /* \"#utility.yul\":4557:4610   */\n      tag_75\n      jump\t// in\n    tag_180:\n        /* \"#utility.yul\":4547:4610   */\n      swap2\n      pop\n        /* \"#utility.yul\":4501:4620   */\n      pop\n        /* \"#utility.yul\":3520:4627   */\n      swap3\n      swap6\n      pop\n      swap3\n      swap6\n      swap1\n      swap4\n      pop\n      jump\t// out\n        /* \"#utility.yul\":4633:5123   */\n    tag_18:\n        /* \"#utility.yul\":4709:4715   */\n      0x00\n        /* \"#utility.yul\":4717:4723   */\n      dup1\n        /* \"#utility.yul\":4766:4768   */\n      0x40\n        /* \"#utility.yul\":4754:4763   */\n      dup4\n        /* \"#utility.yul\":4745:4752   */\n      dup6\n        /* \"#utility.yul\":4741:4764   */\n      sub\n        /* \"#utility.yul\":4737:4769   */\n      slt\n        /* \"#utility.yul\":4734:4853   */\n      iszero\n      tag_182\n      jumpi\n        /* \"#utility.yul\":4772:4851   */\n      tag_183\n      tag_71\n      jump\t// in\n    tag_183:\n        /* \"#utility.yul\":4734:4853   */\n    tag_182:\n        /* \"#utility.yul\":4892:4893   */\n      0x00\n        /* \"#utility.yul\":4917:4970   */\n      tag_184\n        /* \"#utility.yul\":4962:4969   */\n      dup6\n        /* \"#utility.yul\":4953:4959   */\n      dup3\n        /* \"#utility.yul\":4942:4951   */\n      dup7\n        /* \"#utility.yul\":4938:4960   */\n      add\n        /* \"#utility.yul\":4917:4970   */\n      tag_75\n      jump\t// in\n    tag_184:\n        /* \"#utility.yul\":4907:4970   */\n      swap3\n      pop\n        /* \"#utility.yul\":4863:4980   */\n      pop\n        /* \"#utility.yul\":5019:5021   */\n      0x20\n        /* \"#utility.yul\":5045:5106   */\n      tag_185\n        /* \"#utility.yul\":5098:5105   */\n      dup6\n        /* \"#utility.yul\":5089:5095   */\n      dup3\n        /* \"#utility.yul\":5078:5087   */\n      dup7\n        /* \"#utility.yul\":5074:5096   */\n      add\n        /* \"#utility.yul\":5045:5106   */\n      tag_87\n      jump\t// in\n    tag_185:\n        /* \"#utility.yul\":5035:5106   */\n      swap2\n      pop\n        /* \"#utility.yul\":4990:5116   */\n      pop\n        /* \"#utility.yul\":4633:5123   */\n      swap3\n      pop\n      swap3\n      swap1\n      pop\n      jump\t// out\n        /* \"#utility.yul\":5129:5228   */\n    tag_88:\n        /* \"#utility.yul\":5181:5187   */\n      0x00\n        /* \"#utility.yul\":5215:5220   */\n      dup2\n        /* \"#utility.yul\":5209:5221   */\n      mload\n        /* \"#utility.yul\":5199:5221   */\n      swap1\n      pop\n        /* \"#utility.yul\":5129:5228   */\n      swap2\n      swap1\n      pop\n      jump\t// out\n        /* \"#utility.yul\":5234:5403   */\n    tag_89:\n        /* \"#utility.yul\":5318:5329   */\n      0x00\n        /* \"#utility.yul\":5352:5358   */\n      dup3\n        /* \"#utility.yul\":5347:5350   */\n      dup3\n        /* \"#utility.yul\":5340:5359   */\n      mstore\n        /* \"#utility.yul\":5392:5396   */\n      0x20\n        /* \"#utility.yul\":5387:5390   */\n      dup3\n        /* \"#utility.yul\":5383:5397   */\n      add\n        /* \"#utility.yul\":5368:5397   */\n      swap1\n      pop\n        /* \"#utility.yul\":5234:5403   */\n      swap3\n      swap2\n      pop\n      pop\n      jump\t// out\n        /* \"#utility.yul\":5409:5548   */\n    tag_90:\n        /* \"#utility.yul\":5498:5504   */\n      dup3\n        /* \"#utility.yul\":5493:5496   */\n      dup2\n        /* \"#utility.yul\":5488:5491   */\n      dup4\n        /* \"#utility.yul\":5482:5505   */\n      mcopy\n        /* \"#utility.yul\":5539:5540   */\n      0x00\n        /* \"#utility.yul\":5530:5536   */\n      dup4\n        /* \"#utility.yul\":5525:5528   */\n      dup4\n        /* \"#utility.yul\":5521:5537   */\n      add\n        /* \"#utility.yul\":5514:5541   */\n      mstore\n        /* \"#utility.yul\":5409:5548   */\n      pop\n      pop\n      pop\n      jump\t// out\n        /* \"#utility.yul\":5554:5931   */\n    tag_91:\n        /* \"#utility.yul\":5642:5645   */\n      0x00\n        /* \"#utility.yul\":5670:5709   */\n      tag_190\n        /* \"#utility.yul\":5703:5708   */\n      dup3\n        /* \"#utility.yul\":5670:5709   */\n      tag_88\n      jump\t// in\n    tag_190:\n        /* \"#utility.yul\":5725:5796   */\n      tag_191\n        /* \"#utility.yul\":5789:5795   */\n      dup2\n        /* \"#utility.yul\":5784:5787   */\n      dup6\n        /* \"#utility.yul\":5725:5796   */\n      tag_89\n      jump\t// in\n    tag_191:\n        /* \"#utility.yul\":5718:5796   */\n      swap4\n      pop\n        /* \"#utility.yul\":5805:5870   */\n      tag_192\n        /* \"#utility.yul\":5863:5869   */\n      dup2\n        /* \"#utility.yul\":5858:5861   */\n      dup6\n        /* \"#utility.yul\":5851:5855   */\n      0x20\n        /* \"#utility.yul\":5844:5849   */\n      dup7\n        /* \"#utility.yul\":5840:5856   */\n      add\n        /* \"#utility.yul\":5805:5870   */\n      tag_90\n      jump\t// in\n    tag_192:\n        /* \"#utility.yul\":5895:5924   */\n      tag_193\n        /* \"#utility.yul\":5917:5923   */\n      dup2\n        /* \"#utility.yul\":5895:5924   */\n      tag_78\n      jump\t// in\n    tag_193:\n        /* \"#utility.yul\":5890:5893   */\n      dup5\n        /* \"#utility.yul\":5886:5925   */\n      add\n        /* \"#utility.yul\":5879:5925   */\n      swap2\n      pop\n        /* \"#utility.yul\":5646:5931   */\n      pop\n        /* \"#utility.yul\":5554:5931   */\n      swap3\n      swap2\n      pop\n      pop\n      jump\t// out\n        /* \"#utility.yul\":5937:6055   */\n    tag_92:\n        /* \"#utility.yul\":6024:6048   */\n      tag_195\n        /* \"#utility.yul\":6042:6047   */\n      dup2\n        /* \"#utility.yul\":6024:6048   */\n      tag_73\n      jump\t// in\n    tag_195:\n        /* \"#utility.yul\":6019:6022   */\n      dup3\n        /* \"#utility.yul\":6012:6049   */\n      mstore\n        /* \"#utility.yul\":5937:6055   */\n      pop\n      pop\n      jump\t// out\n        /* \"#utility.yul\":6061:6241   */\n    tag_33:\n        /* \"#utility.yul\":6109:6186   */\n      0x4e487b7100000000000000000000000000000000000000000000000000000000\n        /* \"#utility.yul\":6106:6107   */\n      0x00\n        /* \"#utility.yul\":6099:6187   */\n      mstore\n        /* \"#utility.yul\":6206:6210   */\n      0x21\n        /* \"#utility.yul\":6203:6204   */\n      0x04\n        /* \"#utility.yul\":6196:6211   */\n      mstore\n        /* \"#utility.yul\":6230:6234   */\n      0x24\n        /* \"#utility.yul\":6227:6228   */\n      0x00\n        /* \"#utility.yul\":6220:6235   */\n      revert\n        /* \"#utility.yul\":6247:6360   */\n    tag_93:\n        /* \"#utility.yul\":6328:6329   */\n      0x03\n        /* \"#utility.yul\":6321:6326   */\n      dup2\n        /* \"#utility.yul\":6318:6330   */\n      lt\n        /* \"#utility.yul\":6308:6354   */\n      tag_198\n      jumpi\n        /* \"#utility.yul\":6334:6352   */\n      tag_199\n      tag_33\n      jump\t// in\n    tag_199:\n        /* \"#utility.yul\":6308:6354   */\n    tag_198:\n        /* \"#utility.yul\":6247:6360   */\n      pop\n      jump\t// out\n        /* \"#utility.yul\":6366:6493   */\n    tag_94:\n        /* \"#utility.yul\":6411:6418   */\n      0x00\n        /* \"#utility.yul\":6440:6445   */\n      dup2\n        /* \"#utility.yul\":6429:6445   */\n      swap1\n      pop\n        /* \"#utility.yul\":6446:6487   */\n      tag_201\n        /* \"#utility.yul\":6481:6486   */\n      dup3\n        /* \"#utility.yul\":6446:6487   */\n      tag_93\n      jump\t// in\n    tag_201:\n        /* \"#utility.yul\":6366:6493   */\n      swap2\n      swap1\n      pop\n      jump\t// out\n        /* \"#utility.yul\":6499:6626   */\n    tag_95:\n        /* \"#utility.yul\":6555:6564   */\n      0x00\n        /* \"#utility.yul\":6588:6620   */\n      tag_203\n        /* \"#utility.yul\":6614:6619   */\n      dup3\n        /* \"#utility.yul\":6588:6620   */\n      tag_94\n      jump\t// in\n    tag_203:\n        /* \"#utility.yul\":6575:6620   */\n      swap1\n      pop\n        /* \"#utility.yul\":6499:6626   */\n      swap2\n      swap1\n      pop\n      jump\t// out\n        /* \"#utility.yul\":6632:6775   */\n    tag_96:\n        /* \"#utility.yul\":6725:6768   */\n      tag_205\n        /* \"#utility.yul\":6762:6767   */\n      dup2\n        /* \"#utility.yul\":6725:6768   */\n      tag_95\n      jump\t// in\n    tag_205:\n        /* \"#utility.yul\":6720:6723   */\n      dup3\n        /* \"#utility.yul\":6713:6769   */\n      mstore\n        /* \"#utility.yul\":6632:6775   */\n      pop\n      pop\n      jump\t// out\n        /* \"#utility.yul\":6781:6907   */\n    tag_97:\n        /* \"#utility.yul\":6818:6825   */\n      0x00\n        /* \"#utility.yul\":6858:6900   */\n      0xffffffffffffffffffffffffffffffffffffffff\n        /* \"#utility.yul\":6851:6856   */\n      dup3\n        /* \"#utility.yul\":6847:6901   */\n      and\n        /* \"#utility.yul\":6836:6901   */\n      swap1\n      pop\n        /* \"#utility.yul\":6781:6907   */\n      swap2\n      swap1\n      pop\n      jump\t// out\n        /* \"#utility.yul\":6913:7017   */\n    tag_98:\n        /* \"#utility.yul\":6958:6965   */\n      0x00\n        /* \"#utility.yul\":6987:7011   */\n      tag_208\n        /* \"#utility.yul\":7005:7010   */\n      dup3\n        /* \"#utility.yul\":6987:7011   */\n      tag_97\n      jump\t// in\n    tag_208:\n        /* \"#utility.yul\":6976:7011   */\n      swap1\n      pop\n        /* \"#utility.yul\":6913:7017   */\n      swap2\n      swap1\n      pop\n      jump\t// out\n        /* \"#utility.yul\":7023:7165   */\n    tag_99:\n        /* \"#utility.yul\":7126:7158   */\n      tag_210\n        /* \"#utility.yul\":7152:7157   */\n      dup2\n        /* \"#utility.yul\":7126:7158   */\n      tag_98\n      jump\t// in\n    tag_210:\n        /* \"#utility.yul\":7121:7124   */\n      dup3\n        /* \"#utility.yul\":7114:7159   */\n      mstore\n        /* \"#utility.yul\":7023:7165   */\n      pop\n      pop\n      jump\t// out\n        /* \"#utility.yul\":7171:7970   */\n    tag_25:\n        /* \"#utility.yul\":7418:7422   */\n      0x00\n        /* \"#utility.yul\":7456:7459   */\n      0xa0\n        /* \"#utility.yul\":7445:7454   */\n      dup3\n        /* \"#utility.yul\":7441:7460   */\n      add\n        /* \"#utility.yul\":7433:7460   */\n      swap1\n      pop\n        /* \"#utility.yul\":7506:7515   */\n      dup2\n        /* \"#utility.yul\":7500:7504   */\n      dup2\n        /* \"#utility.yul\":7496:7516   */\n      sub\n        /* \"#utility.yul\":7492:7493   */\n      0x00\n        /* \"#utility.yul\":7481:7490   */\n      dup4\n        /* \"#utility.yul\":7477:7494   */\n      add\n        /* \"#utility.yul\":7470:7517   */\n      mstore\n        /* \"#utility.yul\":7534:7612   */\n      tag_212\n        /* \"#utility.yul\":7607:7611   */\n      dup2\n        /* \"#utility.yul\":7598:7604   */\n      dup9\n        /* \"#utility.yul\":7534:7612   */\n      tag_91\n      jump\t// in\n    tag_212:\n        /* \"#utility.yul\":7526:7612   */\n      swap1\n      pop\n        /* \"#utility.yul\":7622:7694   */\n      tag_213\n        /* \"#utility.yul\":7690:7692   */\n      0x20\n        /* \"#utility.yul\":7679:7688   */\n      dup4\n        /* \"#utility.yul\":7675:7693   */\n      add\n        /* \"#utility.yul\":7666:7672   */\n      dup8\n        /* \"#utility.yul\":7622:7694   */\n      tag_92\n      jump\t// in\n    tag_213:\n        /* \"#utility.yul\":7704:7782   */\n      tag_214\n        /* \"#utility.yul\":7778:7780   */\n      0x40\n        /* \"#utility.yul\":7767:7776   */\n      dup4\n        /* \"#utility.yul\":7763:7781   */\n      add\n        /* \"#utility.yul\":7754:7760   */\n      dup7\n        /* \"#utility.yul\":7704:7782   */\n      tag_96\n      jump\t// in\n    tag_214:\n        /* \"#utility.yul\":7792:7880   */\n      tag_215\n        /* \"#utility.yul\":7876:7878   */\n      0x60\n        /* \"#utility.yul\":7865:7874   */\n      dup4\n        /* \"#utility.yul\":7861:7879   */\n      add\n        /* \"#utility.yul\":7852:7858   */\n      dup6\n        /* \"#utility.yul\":7792:7880   */\n      tag_99\n      jump\t// in\n    tag_215:\n        /* \"#utility.yul\":7890:7963   */\n      tag_216\n        /* \"#utility.yul\":7958:7961   */\n      0x80\n        /* \"#utility.yul\":7947:7956   */\n      dup4\n        /* \"#utility.yul\":7943:7962   */\n      add\n        /* \"#utility.yul\":7934:7940   */\n      dup5\n        /* \"#utility.yul\":7890:7963   */\n      tag_92\n      jump\t// in\n    tag_216:\n        /* \"#utility.yul\":7171:7970   */\n      swap7\n      swap6\n      pop\n      pop\n      pop\n      pop\n      pop\n      pop\n      jump\t// out\n        /* \"#utility.yul\":7976:8211   */\n    tag_100:\n        /* \"#utility.yul\":8116:8150   */\n      0x446562652064652073657220756e20636c69656e7465207061726120656a6563\n        /* \"#utility.yul\":8112:8113   */\n      0x00\n        /* \"#utility.yul\":8104:8110   */\n      dup3\n        /* \"#utility.yul\":8100:8114   */\n      add\n        /* \"#utility.yul\":8093:8151   */\n      mstore\n        /* \"#utility.yul\":8185:8203   */\n      0x75746172206573746120616363696f6e00000000000000000000000000000000\n        /* \"#utility.yul\":8180:8182   */\n      0x20\n        /* \"#utility.yul\":8172:8178   */\n      dup3\n        /* \"#utility.yul\":8168:8183   */\n      add\n        /* \"#utility.yul\":8161:8204   */\n      mstore\n        /* \"#utility.yul\":7976:8211   */\n      pop\n      jump\t// out\n        /* \"#utility.yul\":8217:8583   */\n    tag_101:\n        /* \"#utility.yul\":8359:8362   */\n      0x00\n        /* \"#utility.yul\":8380:8447   */\n      tag_219\n        /* \"#utility.yul\":8444:8446   */\n      0x30\n        /* \"#utility.yul\":8439:8442   */\n      dup4\n        /* \"#utility.yul\":8380:8447   */\n      tag_89\n      jump\t// in\n    tag_219:\n        /* \"#utility.yul\":8373:8447   */\n      swap2\n      pop\n        /* \"#utility.yul\":8456:8549   */\n      tag_220\n        /* \"#utility.yul\":8545:8548   */\n      dup3\n        /* \"#utility.yul\":8456:8549   */\n      tag_100\n      jump\t// in\n    tag_220:\n        /* \"#utility.yul\":8574:8576   */\n      0x40\n        /* \"#utility.yul\":8569:8572   */\n      dup3\n        /* \"#utility.yul\":8565:8577   */\n      add\n        /* \"#utility.yul\":8558:8577   */\n      swap1\n      pop\n        /* \"#utility.yul\":8217:8583   */\n      swap2\n      swap1\n      pop\n      jump\t// out\n        /* \"#utility.yul\":8589:9008   */\n    tag_29:\n        /* \"#utility.yul\":8755:8759   */\n      0x00\n        /* \"#utility.yul\":8793:8795   */\n      0x20\n        /* \"#utility.yul\":8782:8791   */\n      dup3\n        /* \"#utility.yul\":8778:8796   */\n      add\n        /* \"#utility.yul\":8770:8796   */\n      swap1\n      pop\n        /* \"#utility.yul\":8842:8851   */\n      dup2\n        /* \"#utility.yul\":8836:8840   */\n      dup2\n        /* \"#utility.yul\":8832:8852   */\n      sub\n        /* \"#utility.yul\":8828:8829   */\n      0x00\n        /* \"#utility.yul\":8817:8826   */\n      dup4\n        /* \"#utility.yul\":8813:8830   */\n      add\n        /* \"#utility.yul\":8806:8853   */\n      mstore\n        /* \"#utility.yul\":8870:9001   */\n      tag_222\n        /* \"#utility.yul\":8996:9000   */\n      dup2\n        /* \"#utility.yul\":8870:9001   */\n      tag_101\n      jump\t// in\n    tag_222:\n        /* \"#utility.yul\":8862:9001   */\n      swap1\n      pop\n        /* \"#utility.yul\":8589:9008   */\n      swap2\n      swap1\n      pop\n      jump\t// out\n        /* \"#utility.yul\":9014:9195   */\n    tag_102:\n        /* \"#utility.yul\":9154:9187   */\n      0x456c2070726f647563746f206465626520657374617220616374697661646f00\n        /* \"#utility.yul\":9150:9151   */\n      0x00\n        /* \"#utility.yul\":9142:9148   */\n      dup3\n        /* \"#utility.yul\":9138:9152   */\n      add\n        /* \"#utility.yul\":9131:9188   */\n      mstore\n        /* \"#utility.yul\":9014:9195   */\n      pop\n      jump\t// out\n        /* \"#utility.yul\":9201:9567   */\n    tag_103:\n        /* \"#utility.yul\":9343:9346   */\n      0x00\n        /* \"#utility.yul\":9364:9431   */\n      tag_225\n        /* \"#utility.yul\":9428:9430   */\n      0x1f\n        /* \"#utility.yul\":9423:9426   */\n      dup4\n        /* \"#utility.yul\":9364:9431   */\n      tag_89\n      jump\t// in\n    tag_225:\n        /* \"#utility.yul\":9357:9431   */\n      swap2\n      pop\n        /* \"#utility.yul\":9440:9533   */\n      tag_226\n        /* \"#utility.yul\":9529:9532   */\n      dup3\n        /* \"#utility.yul\":9440:9533   */\n      tag_102\n      jump\t// in\n    tag_226:\n        /* \"#utility.yul\":9558:9560   */\n      0x20\n        /* \"#utility.yul\":9553:9556   */\n      dup3\n        /* \"#utility.yul\":9549:9561   */\n      add\n        /* \"#utility.yul\":9542:9561   */\n      swap1\n      pop\n        /* \"#utility.yul\":9201:9567   */\n      swap2\n      swap1\n      pop\n      jump\t// out\n        /* \"#utility.yul\":9573:9992   */\n    tag_38:\n        /* \"#utility.yul\":9739:9743   */\n      0x00\n        /* \"#utility.yul\":9777:9779   */\n      0x20\n        /* \"#utility.yul\":9766:9775   */\n      dup3\n        /* \"#utility.yul\":9762:9780   */\n      add\n        /* \"#utility.yul\":9754:9780   */\n      swap1\n      pop\n        /* \"#utility.yul\":9826:9835   */\n      dup2\n        /* \"#utility.yul\":9820:9824   */\n      dup2\n        /* \"#utility.yul\":9816:9836   */\n      sub\n        /* \"#utility.yul\":9812:9813   */\n      0x00\n        /* \"#utility.yul\":9801:9810   */\n      dup4\n        /* \"#utility.yul\":9797:9814   */\n      add\n        /* \"#utility.yul\":9790:9837   */\n      mstore\n        /* \"#utility.yul\":9854:9985   */\n      tag_228\n        /* \"#utility.yul\":9980:9984   */\n      dup2\n        /* \"#utility.yul\":9854:9985   */\n      tag_103\n      jump\t// in\n    tag_228:\n        /* \"#utility.yul\":9846:9985   */\n      swap1\n      pop\n        /* \"#utility.yul\":9573:9992   */\n      swap2\n      swap1\n      pop\n      jump\t// out\n        /* \"#utility.yul\":9998:10222   */\n    tag_104:\n        /* \"#utility.yul\":10138:10172   */\n      0x456c2070726f647563746f20646562652064652074656e657220657869737465\n        /* \"#utility.yul\":10134:10135   */\n      0x00\n        /* \"#utility.yul\":10126:10132   */\n      dup3\n        /* \"#utility.yul\":10122:10136   */\n      add\n        /* \"#utility.yul\":10115:10173   */\n      mstore\n        /* \"#utility.yul\":10207:10214   */\n      0x6e63696173000000000000000000000000000000000000000000000000000000\n        /* \"#utility.yul\":10202:10204   */\n      0x20\n        /* \"#utility.yul\":10194:10200   */\n      dup3\n        /* \"#utility.yul\":10190:10205   */\n      add\n        /* \"#utility.yul\":10183:10215   */\n      mstore\n        /* \"#utility.yul\":9998:10222   */\n      pop\n      jump\t// out\n        /* \"#utility.yul\":10228:10594   */\n    tag_105:\n        /* \"#utility.yul\":10370:10373   */\n      0x00\n        /* \"#utility.yul\":10391:10458   */\n      tag_231\n        /* \"#utility.yul\":10455:10457   */\n      0x25\n        /* \"#utility.yul\":10450:10453   */\n      dup4\n        /* \"#utility.yul\":10391:10458   */\n      tag_89\n      jump\t// in\n    tag_231:\n        /* \"#utility.yul\":10384:10458   */\n      swap2\n      pop\n        /* \"#utility.yul\":10467:10560   */\n      tag_232\n        /* \"#utility.yul\":10556:10559   */\n      dup3\n        /* \"#utility.yul\":10467:10560   */\n      tag_104\n      jump\t// in\n    tag_232:\n        /* \"#utility.yul\":10585:10587   */\n      0x40\n        /* \"#utility.yul\":10580:10583   */\n      dup3\n        /* \"#utility.yul\":10576:10588   */\n      add\n        /* \"#utility.yul\":10569:10588   */\n      swap1\n      pop\n        /* \"#utility.yul\":10228:10594   */\n      swap2\n      swap1\n      pop\n      jump\t// out\n        /* \"#utility.yul\":10600:11019   */\n    tag_41:\n        /* \"#utility.yul\":10766:10770   */\n      0x00\n        /* \"#utility.yul\":10804:10806   */\n      0x20\n        /* \"#utility.yul\":10793:10802   */\n      dup3\n        /* \"#utility.yul\":10789:10807   */\n      add\n        /* \"#utility.yul\":10781:10807   */\n      swap1\n      pop\n        /* \"#utility.yul\":10853:10862   */\n      dup2\n        /* \"#utility.yul\":10847:10851   */\n      dup2\n        /* \"#utility.yul\":10843:10863   */\n      sub\n        /* \"#utility.yul\":10839:10840   */\n      0x00\n        /* \"#utility.yul\":10828:10837   */\n      dup4\n        /* \"#utility.yul\":10824:10841   */\n      add\n        /* \"#utility.yul\":10817:10864   */\n      mstore\n        /* \"#utility.yul\":10881:11012   */\n      tag_234\n        /* \"#utility.yul\":11007:11011   */\n      dup2\n        /* \"#utility.yul\":10881:11012   */\n      tag_105\n      jump\t// in\n    tag_234:\n        /* \"#utility.yul\":10873:11012   */\n      swap1\n      pop\n        /* \"#utility.yul\":10600:11019   */\n      swap2\n      swap1\n      pop\n      jump\t// out\n        /* \"#utility.yul\":11025:11246   */\n    tag_106:\n        /* \"#utility.yul\":11165:11199   */\n      0x44656265206465207472616e73666572697220756e2076616c6f72206d696e69\n        /* \"#utility.yul\":11161:11162   */\n      0x00\n        /* \"#utility.yul\":11153:11159   */\n      dup3\n        /* \"#utility.yul\":11149:11163   */\n      add\n        /* \"#utility.yul\":11142:11200   */\n      mstore\n        /* \"#utility.yul\":11234:11238   */\n      0x6d6f000000000000000000000000000000000000000000000000000000000000\n        /* \"#utility.yul\":11229:11231   */\n      0x20\n        /* \"#utility.yul\":11221:11227   */\n      dup3\n        /* \"#utility.yul\":11217:11232   */\n      add\n        /* \"#utility.yul\":11210:11239   */\n      mstore\n        /* \"#utility.yul\":11025:11246   */\n      pop\n      jump\t// out\n        /* \"#utility.yul\":11252:11618   */\n    tag_107:\n        /* \"#utility.yul\":11394:11397   */\n      0x00\n        /* \"#utility.yul\":11415:11482   */\n      tag_237\n        /* \"#utility.yul\":11479:11481   */\n      0x22\n        /* \"#utility.yul\":11474:11477   */\n      dup4\n        /* \"#utility.yul\":11415:11482   */\n      tag_89\n      jump\t// in\n    tag_237:\n        /* \"#utility.yul\":11408:11482   */\n      swap2\n      pop\n        /* \"#utility.yul\":11491:11584   */\n      tag_238\n        /* \"#utility.yul\":11580:11583   */\n      dup3\n        /* \"#utility.yul\":11491:11584   */\n      tag_106\n      jump\t// in\n    tag_238:\n        /* \"#utility.yul\":11609:11611   */\n      0x40\n        /* \"#utility.yul\":11604:11607   */\n      dup3\n        /* \"#utility.yul\":11600:11612   */\n      add\n        /* \"#utility.yul\":11593:11612   */\n      swap1\n      pop\n        /* \"#utility.yul\":11252:11618   */\n      swap2\n      swap1\n      pop\n      jump\t// out\n        /* \"#utility.yul\":11624:12043   */\n    tag_45:\n        /* \"#utility.yul\":11790:11794   */\n      0x00\n        /* \"#utility.yul\":11828:11830   */\n      0x20\n        /* \"#utility.yul\":11817:11826   */\n      dup3\n        /* \"#utility.yul\":11813:11831   */\n      add\n        /* \"#utility.yul\":11805:11831   */\n      swap1\n      pop\n        /* \"#utility.yul\":11877:11886   */\n      dup2\n        /* \"#utility.yul\":11871:11875   */\n      dup2\n        /* \"#utility.yul\":11867:11887   */\n      sub\n        /* \"#utility.yul\":11863:11864   */\n      0x00\n        /* \"#utility.yul\":11852:11861   */\n      dup4\n        /* \"#utility.yul\":11848:11865   */\n      add\n        /* \"#utility.yul\":11841:11888   */\n      mstore\n        /* \"#utility.yul\":11905:12036   */\n      tag_240\n        /* \"#utility.yul\":12031:12035   */\n      dup2\n        /* \"#utility.yul\":11905:12036   */\n      tag_107\n      jump\t// in\n    tag_240:\n        /* \"#utility.yul\":11897:12036   */\n      swap1\n      pop\n        /* \"#utility.yul\":11624:12043   */\n      swap2\n      swap1\n      pop\n      jump\t// out\n        /* \"#utility.yul\":12049:12229   */\n    tag_108:\n        /* \"#utility.yul\":12097:12174   */\n      0x4e487b7100000000000000000000000000000000000000000000000000000000\n        /* \"#utility.yul\":12094:12095   */\n      0x00\n        /* \"#utility.yul\":12087:12175   */\n      mstore\n        /* \"#utility.yul\":12194:12198   */\n      0x11\n        /* \"#utility.yul\":12191:12192   */\n      0x04\n        /* \"#utility.yul\":12184:12199   */\n      mstore\n        /* \"#utility.yul\":12218:12222   */\n      0x24\n        /* \"#utility.yul\":12215:12216   */\n      0x00\n        /* \"#utility.yul\":12208:12223   */\n      revert\n        /* \"#utility.yul\":12235:12406   */\n    tag_49:\n        /* \"#utility.yul\":12274:12277   */\n      0x00\n        /* \"#utility.yul\":12297:12321   */\n      tag_243\n        /* \"#utility.yul\":12315:12320   */\n      dup3\n        /* \"#utility.yul\":12297:12321   */\n      tag_73\n      jump\t// in\n    tag_243:\n        /* \"#utility.yul\":12288:12321   */\n      swap2\n      pop\n        /* \"#utility.yul\":12343:12347   */\n      0x00\n        /* \"#utility.yul\":12336:12341   */\n      dup3\n        /* \"#utility.yul\":12333:12348   */\n      sub\n        /* \"#utility.yul\":12330:12371   */\n      tag_244\n      jumpi\n        /* \"#utility.yul\":12351:12369   */\n      tag_245\n      tag_108\n      jump\t// in\n    tag_245:\n        /* \"#utility.yul\":12330:12371   */\n    tag_244:\n        /* \"#utility.yul\":12398:12399   */\n      0x01\n        /* \"#utility.yul\":12391:12396   */\n      dup3\n        /* \"#utility.yul\":12387:12400   */\n      sub\n        /* \"#utility.yul\":12380:12400   */\n      swap1\n      pop\n        /* \"#utility.yul\":12235:12406   */\n      swap2\n      swap1\n      pop\n      jump\t// out\n        /* \"#utility.yul\":12412:12592   */\n    tag_109:\n        /* \"#utility.yul\":12460:12537   */\n      0x4e487b7100000000000000000000000000000000000000000000000000000000\n        /* \"#utility.yul\":12457:12458   */\n      0x00\n        /* \"#utility.yul\":12450:12538   */\n      mstore\n        /* \"#utility.yul\":12557:12561   */\n      0x22\n        /* \"#utility.yul\":12554:12555   */\n      0x04\n        /* \"#utility.yul\":12547:12562   */\n      mstore\n        /* \"#utility.yul\":12581:12585   */\n      0x24\n        /* \"#utility.yul\":12578:12579   */\n      0x00\n        /* \"#utility.yul\":12571:12586   */\n      revert\n        /* \"#utility.yul\":12598:12918   */\n    tag_65:\n        /* \"#utility.yul\":12642:12648   */\n      0x00\n        /* \"#utility.yul\":12679:12680   */\n      0x02\n        /* \"#utility.yul\":12673:12677   */\n      dup3\n        /* \"#utility.yul\":12669:12681   */\n      div\n        /* \"#utility.yul\":12659:12681   */\n      swap1\n      pop\n        /* \"#utility.yul\":12726:12727   */\n      0x01\n        /* \"#utility.yul\":12720:12724   */\n      dup3\n        /* \"#utility.yul\":12716:12728   */\n      and\n        /* \"#utility.yul\":12747:12765   */\n      dup1\n        /* \"#utility.yul\":12737:12818   */\n      tag_248\n      jumpi\n        /* \"#utility.yul\":12803:12807   */\n      0x7f\n        /* \"#utility.yul\":12795:12801   */\n      dup3\n        /* \"#utility.yul\":12791:12808   */\n      and\n        /* \"#utility.yul\":12781:12808   */\n      swap2\n      pop\n        /* \"#utility.yul\":12737:12818   */\n    tag_248:\n        /* \"#utility.yul\":12865:12867   */\n      0x20\n        /* \"#utility.yul\":12857:12863   */\n      dup3\n        /* \"#utility.yul\":12854:12868   */\n      lt\n        /* \"#utility.yul\":12834:12852   */\n      dup2\n        /* \"#utility.yul\":12831:12869   */\n      sub\n        /* \"#utility.yul\":12828:12912   */\n      tag_249\n      jumpi\n        /* \"#utility.yul\":12884:12902   */\n      tag_250\n      tag_109\n      jump\t// in\n    tag_250:\n        /* \"#utility.yul\":12828:12912   */\n    tag_249:\n        /* \"#utility.yul\":12649:12918   */\n      pop\n        /* \"#utility.yul\":12598:12918   */\n      swap2\n      swap1\n      pop\n      jump\t// out\n        /* \"#utility.yul\":12924:13065   */\n    tag_110:\n        /* \"#utility.yul\":12973:12977   */\n      0x00\n        /* \"#utility.yul\":12996:12999   */\n      dup2\n        /* \"#utility.yul\":12988:12999   */\n      swap1\n      pop\n        /* \"#utility.yul\":13019:13022   */\n      dup2\n        /* \"#utility.yul\":13016:13017   */\n      0x00\n        /* \"#utility.yul\":13009:13023   */\n      mstore\n        /* \"#utility.yul\":13053:13057   */\n      0x20\n        /* \"#utility.yul\":13050:13051   */\n      0x00\n        /* \"#utility.yul\":13040:13058   */\n      keccak256\n        /* \"#utility.yul\":13032:13058   */\n      swap1\n      pop\n        /* \"#utility.yul\":12924:13065   */\n      swap2\n      swap1\n      pop\n      jump\t// out\n        /* \"#utility.yul\":13071:13164   */\n    tag_111:\n        /* \"#utility.yul\":13108:13114   */\n      0x00\n        /* \"#utility.yul\":13155:13157   */\n      0x20\n        /* \"#utility.yul\":13150:13152   */\n      0x1f\n        /* \"#utility.yul\":13143:13148   */\n      dup4\n        /* \"#utility.yul\":13139:13153   */\n      add\n        /* \"#utility.yul\":13135:13158   */\n      div\n        /* \"#utility.yul\":13125:13158   */\n      swap1\n      pop\n        /* \"#utility.yul\":13071:13164   */\n      swap2\n      swap1\n      pop\n      jump\t// out\n        /* \"#utility.yul\":13170:13277   */\n    tag_112:\n        /* \"#utility.yul\":13214:13222   */\n      0x00\n        /* \"#utility.yul\":13264:13269   */\n      dup3\n        /* \"#utility.yul\":13258:13262   */\n      dup3\n        /* \"#utility.yul\":13254:13270   */\n      shl\n        /* \"#utility.yul\":13233:13270   */\n      swap1\n      pop\n        /* \"#utility.yul\":13170:13277   */\n      swap3\n      swap2\n      pop\n      pop\n      jump\t// out\n        /* \"#utility.yul\":13283:13676   */\n    tag_113:\n        /* \"#utility.yul\":13352:13358   */\n      0x00\n        /* \"#utility.yul\":13402:13403   */\n      0x08\n        /* \"#utility.yul\":13390:13400   */\n      dup4\n        /* \"#utility.yul\":13386:13404   */\n      mul\n        /* \"#utility.yul\":13425:13522   */\n      tag_255\n        /* \"#utility.yul\":13455:13521   */\n      0xffffffffffffffffffffffffffffffffffffffffffffffffffffffffffffffff\n        /* \"#utility.yul\":13444:13453   */\n      dup3\n        /* \"#utility.yul\":13425:13522   */\n      tag_112\n      jump\t// in\n    tag_255:\n        /* \"#utility.yul\":13543:13582   */\n      tag_256\n        /* \"#utility.yul\":13573:13581   */\n      dup7\n        /* \"#utility.yul\":13562:13571   */\n      dup4\n        /* \"#utility.yul\":13543:13582   */\n      tag_112\n      jump\t// in\n    tag_256:\n        /* \"#utility.yul\":13531:13582   */\n      swap6\n      pop\n        /* \"#utility.yul\":13615:13619   */\n      dup1\n        /* \"#utility.yul\":13611:13620   */\n      not\n        /* \"#utility.yul\":13604:13609   */\n      dup5\n        /* \"#utility.yul\":13600:13621   */\n      and\n        /* \"#utility.yul\":13591:13621   */\n      swap4\n      pop\n        /* \"#utility.yul\":13664:13668   */\n      dup1\n        /* \"#utility.yul\":13654:13662   */\n      dup7\n        /* \"#utility.yul\":13650:13669   */\n      and\n        /* \"#utility.yul\":13643:13648   */\n      dup5\n        /* \"#utility.yul\":13640:13670   */\n      or\n        /* \"#utility.yul\":13630:13670   */\n      swap3\n      pop\n        /* \"#utility.yul\":13359:13676   */\n      pop\n      pop\n        /* \"#utility.yul\":13283:13676   */\n      swap4\n      swap3\n      pop\n      pop\n      pop\n      jump\t// out\n        /* \"#utility.yul\":13682:13742   */\n    tag_114:\n        /* \"#utility.yul\":13710:13713   */\n      0x00\n        /* \"#utility.yul\":13731:13736   */\n      dup2\n        /* \"#utility.yul\":13724:13736   */\n      swap1\n      pop\n        /* \"#utility.yul\":13682:13742   */\n      swap2\n      swap1\n      pop\n      jump\t// out\n        /* \"#utility.yul\":13748:13890   */\n    tag_115:\n        /* \"#utility.yul\":13798:13807   */\n      0x00\n        /* \"#utility.yul\":13831:13884   */\n      tag_259\n        /* \"#utility.yul\":13849:13883   */\n      tag_260\n        /* \"#utility.yul\":13858:13882   */\n      tag_261\n        /* \"#utility.yul\":13876:13881   */\n      dup5\n        /* \"#utility.yul\":13858:13882   */\n      tag_73\n      jump\t// in\n    tag_261:\n        /* \"#utility.yul\":13849:13883   */\n      tag_114\n      jump\t// in\n    tag_260:\n        /* \"#utility.yul\":13831:13884   */\n      tag_73\n      jump\t// in\n    tag_259:\n        /* \"#utility.yul\":13818:13884   */\n      swap1\n      pop\n        /* \"#utility.yul\":13748:13890   */\n      swap2\n      swap1\n      pop\n      jump\t// out\n        /* \"#utility.yul\":13896:13971   */\n    tag_116:\n        /* \"#utility.yul\":13939:13942   */\n      0x00\n        /* \"#utility.yul\":13960:13965   */\n      dup2\n        /* \"#utility.yul\":13953:13965   */\n      swap1\n      pop\n        /* \"#utility.yul\":13896:13971   */\n      swap2\n      swap1\n      pop\n      jump\t// out\n        /* \"#utility.yul\":13977:14246   */\n    tag_117:\n        /* \"#utility.yul\":14087:14126   */\n      tag_264\n        /* \"#utility.yul\":14118:14125   */\n      dup4\n        /* \"#utility.yul\":14087:14126   */\n      tag_115\n      jump\t// in\n    tag_264:\n        /* \"#utility.yul\":14148:14239   */\n      tag_265\n        /* \"#utility.yul\":14197:14238   */\n      tag_266\n        /* \"#utility.yul\":14221:14237   */\n      dup3\n        /* \"#utility.yul\":14197:14238   */\n      tag_116\n      jump\t// in\n    tag_266:\n        /* \"#utility.yul\":14189:14195   */\n      dup5\n        /* \"#utility.yul\":14182:14186   */\n      dup5\n        /* \"#utility.yul\":14176:14187   */\n      sload\n        /* \"#utility.yul\":14148:14239   */\n      tag_113\n      jump\t// in\n    tag_265:\n        /* \"#utility.yul\":14142:14146   */\n      dup3\n        /* \"#utility.yul\":14135:14240   */\n      sstore\n        /* \"#utility.yul\":14053:14246   */\n      pop\n        /* \"#utility.yul\":13977:14246   */\n      pop\n      pop\n      pop\n      jump\t// out\n        /* \"#utility.yul\":14252:14325   */\n    tag_118:\n        /* \"#utility.yul\":14297:14300   */\n      0x00\n        /* \"#utility.yul\":14252:14325   */\n      swap1\n      jump\t// out\n        /* \"#utility.yul\":14331:14520   */\n    tag_119:\n        /* \"#utility.yul\":14408:14440   */\n      tag_269\n      tag_118\n      jump\t// in\n    tag_269:\n        /* \"#utility.yul\":14449:14514   */\n      tag_270\n        /* \"#utility.yul\":14507:14513   */\n      dup2\n        /* \"#utility.yul\":14499:14505   */\n      dup5\n        /* \"#utility.yul\":14493:14497   */\n      dup5\n        /* \"#utility.yul\":14449:14514   */\n      tag_117\n      jump\t// in\n    tag_270:\n        /* \"#utility.yul\":14384:14520   */\n      pop\n        /* \"#utility.yul\":14331:14520   */\n      pop\n      pop\n      jump\t// out\n        /* \"#utility.yul\":14526:14712   */\n    tag_120:\n        /* \"#utility.yul\":14586:14706   */\n    tag_272:\n        /* \"#utility.yul\":14603:14606   */\n      dup2\n        /* \"#utility.yul\":14596:14601   */\n      dup2\n        /* \"#utility.yul\":14593:14607   */\n      lt\n        /* \"#utility.yul\":14586:14706   */\n      iszero\n      tag_274\n      jumpi\n        /* \"#utility.yul\":14657:14696   */\n      tag_275\n        /* \"#utility.yul\":14694:14695   */\n      0x00\n        /* \"#utility.yul\":14687:14692   */\n      dup3\n        /* \"#utility.yul\":14657:14696   */\n      tag_119\n      jump\t// in\n    tag_275:\n        /* \"#utility.yul\":14630:14631   */\n      0x01\n        /* \"#utility.yul\":14623:14628   */\n      dup2\n        /* \"#utility.yul\":14619:14632   */\n      add\n        /* \"#utility.yul\":14610:14632   */\n      swap1\n      pop\n        /* \"#utility.yul\":14586:14706   */\n      jump(tag_272)\n    tag_274:\n        /* \"#utility.yul\":14526:14712   */\n      pop\n      pop\n      jump\t// out\n        /* \"#utility.yul\":14718:15261   */\n    tag_121:\n        /* \"#utility.yul\":14819:14821   */\n      0x1f\n        /* \"#utility.yul\":14814:14817   */\n      dup3\n        /* \"#utility.yul\":14811:14822   */\n      gt\n        /* \"#utility.yul\":14808:15254   */\n      iszero\n      tag_277\n      jumpi\n        /* \"#utility.yul\":14853:14891   */\n      tag_278\n        /* \"#utility.yul\":14885:14890   */\n      dup2\n        /* \"#utility.yul\":14853:14891   */\n      tag_110\n      jump\t// in\n    tag_278:\n        /* \"#utility.yul\":14937:14966   */\n      tag_279\n        /* \"#utility.yul\":14955:14965   */\n      dup5\n        /* \"#utility.yul\":14937:14966   */\n      tag_111\n      jump\t// in\n    tag_279:\n        /* \"#utility.yul\":14927:14935   */\n      dup2\n        /* \"#utility.yul\":14923:14967   */\n      add\n        /* \"#utility.yul\":15120:15122   */\n      0x20\n        /* \"#utility.yul\":15108:15118   */\n      dup6\n        /* \"#utility.yul\":15105:15123   */\n      lt\n        /* \"#utility.yul\":15102:15151   */\n      iszero\n      tag_280\n      jumpi\n        /* \"#utility.yul\":15141:15149   */\n      dup2\n        /* \"#utility.yul\":15126:15149   */\n      swap1\n      pop\n        /* \"#utility.yul\":15102:15151   */\n    tag_280:\n        /* \"#utility.yul\":15164:15244   */\n      tag_281\n        /* \"#utility.yul\":15220:15242   */\n      tag_282\n        /* \"#utility.yul\":15238:15241   */\n      dup6\n        /* \"#utility.yul\":15220:15242   */\n      tag_111\n      jump\t// in\n    tag_282:\n        /* \"#utility.yul\":15210:15218   */\n      dup4\n        /* \"#utility.yul\":15206:15243   */\n      add\n        /* \"#utility.yul\":15193:15204   */\n      dup3\n        /* \"#utility.yul\":15164:15244   */\n      tag_120\n      jump\t// in\n    tag_281:\n        /* \"#utility.yul\":14823:15254   */\n      pop\n      pop\n        /* \"#utility.yul\":14808:15254   */\n    tag_277:\n        /* \"#utility.yul\":14718:15261   */\n      pop\n      pop\n      pop\n      jump\t// out\n        /* \"#utility.yul\":15267:15384   */\n    tag_122:\n        /* \"#utility.yul\":15321:15329   */\n      0x00\n        /* \"#utility.yul\":15371:15376   */\n      dup3\n        /* \"#utility.yul\":15365:15369   */\n      dup3\n        /* \"#utility.yul\":15361:15377   */\n      shr\n        /* \"#utility.yul\":15340:15377   */\n      swap1\n      pop\n        /* \"#utility.yul\":15267:15384   */\n      swap3\n      swap2\n      pop\n      pop\n      jump\t// out\n        /* \"#utility.yul\":15390:15559   */\n    tag_123:\n        /* \"#utility.yul\":15434:15440   */\n      0x00\n        /* \"#utility.yul\":15467:15518   */\n      tag_285\n        /* \"#utility.yul\":15515:15516   */\n      0x00\n        /* \"#utility.yul\":15511:15517   */\n      not\n        /* \"#utility.yul\":15503:15508   */\n      dup5\n        /* \"#utility.yul\":15500:15501   */\n      0x08\n        /* \"#utility.yul\":15496:15509   */\n      mul\n        /* \"#utility.yul\":15467:15518   */\n      tag_122\n      jump\t// in\n    tag_285:\n        /* \"#utility.yul\":15463:15519   */\n      not\n        /* \"#utility.yul\":15548:15552   */\n      dup1\n        /* \"#utility.yul\":15542:15546   */\n      dup4\n        /* \"#utility.yul\":15538:15553   */\n      and\n        /* \"#utility.yul\":15528:15553   */\n      swap2\n      pop\n        /* \"#utility.yul\":15441:15559   */\n      pop\n        /* \"#utility.yul\":15390:15559   */\n      swap3\n      swap2\n      pop\n      pop\n      jump\t// out\n        /* \"#utility.yul\":15564:15859   */\n    tag_124:\n        /* \"#utility.yul\":15640:15644   */\n      0x00\n        /* \"#utility.yul\":15786:15815   */\n      tag_287\n        /* \"#utility.yul\":15811:15814   */\n      dup4\n        /* \"#utility.yul\":15805:15809   */\n      dup4\n        /* \"#utility.yul\":15786:15815   */\n      tag_123\n      jump\t// in\n    tag_287:\n        /* \"#utility.yul\":15778:15815   */\n      swap2\n      pop\n        /* \"#utility.yul\":15848:15851   */\n      dup3\n        /* \"#utility.yul\":15845:15846   */\n      0x02\n        /* \"#utility.yul\":15841:15852   */\n      mul\n        /* \"#utility.yul\":15835:15839   */\n      dup3\n        /* \"#utility.yul\":15832:15853   */\n      or\n        /* \"#utility.yul\":15824:15853   */\n      swap1\n      pop\n        /* \"#utility.yul\":15564:15859   */\n      swap3\n      swap2\n      pop\n      pop\n      jump\t// out\n        /* \"#utility.yul\":15864:17259   */\n    tag_54:\n        /* \"#utility.yul\":15981:16018   */\n      tag_289\n        /* \"#utility.yul\":16014:16017   */\n      dup3\n        /* \"#utility.yul\":15981:16018   */\n      tag_88\n      jump\t// in\n    tag_289:\n        /* \"#utility.yul\":16083:16101   */\n      0xffffffffffffffff\n        /* \"#utility.yul\":16075:16081   */\n      dup2\n        /* \"#utility.yul\":16072:16102   */\n      gt\n        /* \"#utility.yul\":16069:16125   */\n      iszero\n      tag_290\n      jumpi\n        /* \"#utility.yul\":16105:16123   */\n      tag_291\n      tag_79\n      jump\t// in\n    tag_291:\n        /* \"#utility.yul\":16069:16125   */\n    tag_290:\n        /* \"#utility.yul\":16149:16187   */\n      tag_292\n        /* \"#utility.yul\":16181:16185   */\n      dup3\n        /* \"#utility.yul\":16175:16186   */\n      sload\n        /* \"#utility.yul\":16149:16187   */\n      tag_65\n      jump\t// in\n    tag_292:\n        /* \"#utility.yul\":16234:16301   */\n      tag_293\n        /* \"#utility.yul\":16294:16300   */\n      dup3\n        /* \"#utility.yul\":16286:16292   */\n      dup3\n        /* \"#utility.yul\":16280:16284   */\n      dup6\n        /* \"#utility.yul\":16234:16301   */\n      tag_121\n      jump\t// in\n    tag_293:\n        /* \"#utility.yul\":16328:16329   */\n      0x00\n        /* \"#utility.yul\":16352:16356   */\n      0x20\n        /* \"#utility.yul\":16339:16356   */\n      swap1\n      pop\n        /* \"#utility.yul\":16384:16386   */\n      0x1f\n        /* \"#utility.yul\":16376:16382   */\n      dup4\n        /* \"#utility.yul\":16373:16387   */\n      gt\n        /* \"#utility.yul\":16401:16402   */\n      0x01\n        /* \"#utility.yul\":16396:17014   */\n      dup2\n      eq\n      tag_295\n      jumpi\n        /* \"#utility.yul\":17058:17059   */\n      0x00\n        /* \"#utility.yul\":17075:17081   */\n      dup5\n        /* \"#utility.yul\":17072:17149   */\n      iszero\n      tag_296\n      jumpi\n        /* \"#utility.yul\":17124:17133   */\n      dup3\n        /* \"#utility.yul\":17119:17122   */\n      dup8\n        /* \"#utility.yul\":17115:17134   */\n      add\n        /* \"#utility.yul\":17109:17135   */\n      mload\n        /* \"#utility.yul\":17100:17135   */\n      swap1\n      pop\n        /* \"#utility.yul\":17072:17149   */\n    tag_296:\n        /* \"#utility.yul\":17175:17242   */\n      tag_297\n        /* \"#utility.yul\":17235:17241   */\n      dup6\n        /* \"#utility.yul\":17228:17233   */\n      dup3\n        /* \"#utility.yul\":17175:17242   */\n      tag_124\n      jump\t// in\n    tag_297:\n        /* \"#utility.yul\":17169:17173   */\n      dup7\n        /* \"#utility.yul\":17162:17243   */\n      sstore\n        /* \"#utility.yul\":17031:17253   */\n      pop\n        /* \"#utility.yul\":16366:17253   */\n      jump(tag_294)\n        /* \"#utility.yul\":16396:17014   */\n    tag_295:\n        /* \"#utility.yul\":16448:16452   */\n      0x1f\n        /* \"#utility.yul\":16444:16453   */\n      not\n        /* \"#utility.yul\":16436:16442   */\n      dup5\n        /* \"#utility.yul\":16432:16454   */\n      and\n        /* \"#utility.yul\":16482:16519   */\n      tag_298\n        /* \"#utility.yul\":16514:16518   */\n      dup7\n        /* \"#utility.yul\":16482:16519   */\n      tag_110\n      jump\t// in\n    tag_298:\n        /* \"#utility.yul\":16541:16542   */\n      0x00\n        /* \"#utility.yul\":16555:16763   */\n    tag_299:\n        /* \"#utility.yul\":16569:16576   */\n      dup3\n        /* \"#utility.yul\":16566:16567   */\n      dup2\n        /* \"#utility.yul\":16563:16577   */\n      lt\n        /* \"#utility.yul\":16555:16763   */\n      iszero\n      tag_301\n      jumpi\n        /* \"#utility.yul\":16648:16657   */\n      dup5\n        /* \"#utility.yul\":16643:16646   */\n      dup10\n        /* \"#utility.yul\":16639:16658   */\n      add\n        /* \"#utility.yul\":16633:16659   */\n      mload\n        /* \"#utility.yul\":16625:16631   */\n      dup3\n        /* \"#utility.yul\":16618:16660   */\n      sstore\n        /* \"#utility.yul\":16699:16700   */\n      0x01\n        /* \"#utility.yul\":16691:16697   */\n      dup3\n        /* \"#utility.yul\":16687:16701   */\n      add\n        /* \"#utility.yul\":16677:16701   */\n      swap2\n      pop\n        /* \"#utility.yul\":16746:16748   */\n      0x20\n        /* \"#utility.yul\":16735:16744   */\n      dup6\n        /* \"#utility.yul\":16731:16749   */\n      add\n        /* \"#utility.yul\":16718:16749   */\n      swap5\n      pop\n        /* \"#utility.yul\":16592:16596   */\n      0x20\n        /* \"#utility.yul\":16589:16590   */\n      dup2\n        /* \"#utility.yul\":16585:16597   */\n      add\n        /* \"#utility.yul\":16580:16597   */\n      swap1\n      pop\n        /* \"#utility.yul\":16555:16763   */\n      jump(tag_299)\n    tag_301:\n        /* \"#utility.yul\":16791:16797   */\n      dup7\n        /* \"#utility.yul\":16782:16789   */\n      dup4\n        /* \"#utility.yul\":16779:16798   */\n      lt\n        /* \"#utility.yul\":16776:16955   */\n      iszero\n      tag_302\n      jumpi\n        /* \"#utility.yul\":16849:16858   */\n      dup5\n        /* \"#utility.yul\":16844:16847   */\n      dup10\n        /* \"#utility.yul\":16840:16859   */\n      add\n        /* \"#utility.yul\":16834:16860   */\n      mload\n        /* \"#utility.yul\":16892:16940   */\n      tag_303\n        /* \"#utility.yul\":16934:16938   */\n      0x1f\n        /* \"#utility.yul\":16926:16932   */\n      dup10\n        /* \"#utility.yul\":16922:16939   */\n      and\n        /* \"#utility.yul\":16911:16920   */\n      dup3\n        /* \"#utility.yul\":16892:16940   */\n      tag_123\n      jump\t// in\n    tag_303:\n        /* \"#utility.yul\":16884:16890   */\n      dup4\n        /* \"#utility.yul\":16877:16941   */\n      sstore\n        /* \"#utility.yul\":16799:16955   */\n      pop\n        /* \"#utility.yul\":16776:16955   */\n    tag_302:\n        /* \"#utility.yul\":17001:17002   */\n      0x01\n        /* \"#utility.yul\":16997:16998   */\n      0x02\n        /* \"#utility.yul\":16989:16995   */\n      dup9\n        /* \"#utility.yul\":16985:16999   */\n      mul\n        /* \"#utility.yul\":16981:17003   */\n      add\n        /* \"#utility.yul\":16975:16979   */\n      dup9\n        /* \"#utility.yul\":16968:17004   */\n      sstore\n        /* \"#utility.yul\":16403:17014   */\n      pop\n      pop\n      pop\n        /* \"#utility.yul\":16366:17253   */\n    tag_294:\n      pop\n        /* \"#utility.yul\":15956:17259   */\n      pop\n      pop\n      pop\n        /* \"#utility.yul\":15864:17259   */\n      pop\n      pop\n      jump\t// out\n        /* \"#utility.yul\":17265:17500   */\n    tag_125:\n        /* \"#utility.yul\":17405:17439   */\n      0x446562652064652073657220756e2063726561646f72207061726120656a6563\n        /* \"#utility.yul\":17401:17402   */\n      0x00\n        /* \"#utility.yul\":17393:17399   */\n      dup3\n        /* \"#utility.yul\":17389:17403   */\n      add\n        /* \"#utility.yul\":17382:17440   */\n      mstore\n        /* \"#utility.yul\":17474:17492   */\n      0x75746172206573746120616363696f6e00000000000000000000000000000000\n        /* \"#utility.yul\":17469:17471   */\n      0x20\n        /* \"#utility.yul\":17461:17467   */\n      dup3\n        /* \"#utility.yul\":17457:17472   */\n      add\n        /* \"#utility.yul\":17450:17493   */\n      mstore\n        /* \"#utility.yul\":17265:17500   */\n      pop\n      jump\t// out\n        /* \"#utility.yul\":17506:17872   */\n    tag_126:\n        /* \"#utility.yul\":17648:17651   */\n      0x00\n        /* \"#utility.yul\":17669:17736   */\n      tag_306\n        /* \"#utility.yul\":17733:17735   */\n      0x30\n        /* \"#utility.yul\":17728:17731   */\n      dup4\n        /* \"#utility.yul\":17669:17736   */\n      tag_89\n      jump\t// in\n    tag_306:\n        /* \"#utility.yul\":17662:17736   */\n      swap2\n      pop\n        /* \"#utility.yul\":17745:17838   */\n      tag_307\n        /* \"#utility.yul\":17834:17837   */\n      dup3\n        /* \"#utility.yul\":17745:17838   */\n      tag_125\n      jump\t// in\n    tag_307:\n        /* \"#utility.yul\":17863:17865   */\n      0x40\n        /* \"#utility.yul\":17858:17861   */\n      dup3\n        /* \"#utility.yul\":17854:17866   */\n      add\n        /* \"#utility.yul\":17847:17866   */\n      swap1\n      pop\n        /* \"#utility.yul\":17506:17872   */\n      swap2\n      swap1\n      pop\n      jump\t// out\n        /* \"#utility.yul\":17878:18297   */\n    tag_60:\n        /* \"#utility.yul\":18044:18048   */\n      0x00\n        /* \"#utility.yul\":18082:18084   */\n      0x20\n        /* \"#utility.yul\":18071:18080   */\n      dup3\n        /* \"#utility.yul\":18067:18085   */\n      add\n        /* \"#utility.yul\":18059:18085   */\n      swap1\n      pop\n        /* \"#utility.yul\":18131:18140   */\n      dup2\n        /* \"#utility.yul\":18125:18129   */\n      dup2\n        /* \"#utility.yul\":18121:18141   */\n      sub\n        /* \"#utility.yul\":18117:18118   */\n      0x00\n        /* \"#utility.yul\":18106:18115   */\n      dup4\n        /* \"#utility.yul\":18102:18119   */\n      add\n        /* \"#utility.yul\":18095:18142   */\n      mstore\n        /* \"#utility.yul\":18159:18290   */\n      tag_309\n        /* \"#utility.yul\":18285:18289   */\n      dup2\n        /* \"#utility.yul\":18159:18290   */\n      tag_126\n      jump\t// in\n    tag_309:\n        /* \"#utility.yul\":18151:18290   */\n      swap1\n      pop\n        /* \"#utility.yul\":17878:18297   */\n      swap2\n      swap1\n      pop\n      jump\t// out\n\n    auxdata: 0xa2646970667358221220d5029cc93562c51187087b563d5871c8985bf0d98b72e8c25e04463952d4566864736f6c634300081a0033\n}\n",
				"bytecode": {
					"linkReferences": {},
					"object": "6080604052348015600e575f80fd5b5061103c8061001c5f395ff3fe60806040526004361061003e575f3560e01c806302bcd33514610042578063445ff3dc1461005e578063979a01dd1461008657806399553636146100ae575b5f80fd5b61005c60048036038101906100579190610675565b6100ee565b005b348015610069575f80fd5b50610084600480360381019061007f91906107ff565b610366565b005b348015610091575f80fd5b506100ac60048036038101906100a79190610892565b61046d565b005b3480156100b9575f80fd5b506100d460048036038101906100cf9190610675565b61054e565b6040516100e59594939291906109f1565b60405180910390f35b805f808281526020019081526020015f2060020160019054906101000a900473ffffffffffffffffffffffffffffffffffffffff1673ffffffffffffffffffffffffffffffffffffffff163373ffffffffffffffffffffffffffffffffffffffff1603610190576040517f08c379a000000000000000000000000000000000000000000000000000000000815260040161018790610ab9565b60405180910390fd5b81600160028111156101a5576101a461093f565b5b5f808381526020019081526020015f206002015f9054906101000a900460ff1660028111156101d7576101d661093f565b5b03610217576040517f08c379a000000000000000000000000000000000000000000000000000000000815260040161020e90610b21565b60405180910390fd5b5f805f8381526020019081526020015f20600101541161026c576040517f08c379a000000000000000000000000000000000000000000000000000000000815260040161026390610baf565b60405180910390fd5b5f808481526020019081526020015f20600301543410156102c2576040517f08c379a00000000000000000000000000000000000000000000000000000000081526004016102b990610c3d565b60405180910390fd5b5f808481526020019081526020015f2060020160019054906101000a900473ffffffffffffffffffffffffffffffffffffffff1673ffffffffffffffffffffffffffffffffffffffff166108fc3490811502906040515f60405180830381858888f19350505050158015610338573d5f803e3d5ffd5b505f808481526020019081526020015f206001015f81548092919061035c90610c88565b9190505550505050565b6040518060a001604052808581526020018381526020018460028111156103905761038f61093f565b5b81526020013373ffffffffffffffffffffffffffffffffffffffff168152602001828152505f808781526020019081526020015f205f820151815f0190816103d89190610ea9565b50602082015181600101556040820151816002015f6101000a81548160ff0219169083600281111561040d5761040c61093f565b5b021790555060608201518160020160016101000a81548173ffffffffffffffffffffffffffffffffffffffff021916908373ffffffffffffffffffffffffffffffffffffffff160217905550608082015181600301559050505050505050565b815f808281526020019081526020015f2060020160019054906101000a900473ffffffffffffffffffffffffffffffffffffffff1673ffffffffffffffffffffffffffffffffffffffff163373ffffffffffffffffffffffffffffffffffffffff161461050f576040517f08c379a000000000000000000000000000000000000000000000000000000000815260040161050690610fe8565b60405180910390fd5b815f808581526020019081526020015f206002015f6101000a81548160ff021916908360028111156105445761054361093f565b5b0217905550505050565b5f602052805f5260405f205f91509050805f01805461056c90610cdc565b80601f016020809104026020016040519081016040528092919081815260200182805461059890610cdc565b80156105e35780601f106105ba576101008083540402835291602001916105e3565b820191905f5260205f20905b8154815290600101906020018083116105c657829003601f168201915b505050505090806001015490806002015f9054906101000a900460ff16908060020160019054906101000a900473ffffffffffffffffffffffffffffffffffffffff16908060030154905085565b5f604051905090565b5f80fd5b5f80fd5b5f819050919050565b61065481610642565b811461065e575f80fd5b50565b5f8135905061066f8161064b565b92915050565b5f6020828403121561068a5761068961063a565b5b5f61069784828501610661565b91505092915050565b5f80fd5b5f80fd5b5f601f19601f8301169050919050565b7f4e487b71000000000000000000000000000000000000000000000000000000005f52604160045260245ffd5b6106ee826106a8565b810181811067ffffffffffffffff8211171561070d5761070c6106b8565b5b80604052505050565b5f61071f610631565b905061072b82826106e5565b919050565b5f67ffffffffffffffff82111561074a576107496106b8565b5b610753826106a8565b9050602081019050919050565b828183375f83830152505050565b5f61078061077b84610730565b610716565b90508281526020810184848401111561079c5761079b6106a4565b5b6107a7848285610760565b509392505050565b5f82601f8301126107c3576107c26106a0565b5b81356107d384826020860161076e565b91505092915050565b600381106107e8575f80fd5b50565b5f813590506107f9816107dc565b92915050565b5f805f805f60a086880312156108185761081761063a565b5b5f61082588828901610661565b955050602086013567ffffffffffffffff8111156108465761084561063e565b5b610852888289016107af565b9450506040610863888289016107eb565b935050606061087488828901610661565b925050608061088588828901610661565b9150509295509295909350565b5f80604083850312156108a8576108a761063a565b5b5f6108b585828601610661565b92505060206108c6858286016107eb565b9150509250929050565b5f81519050919050565b5f82825260208201905092915050565b8281835e5f83830152505050565b5f610902826108d0565b61090c81856108da565b935061091c8185602086016108ea565b610925816106a8565b840191505092915050565b61093981610642565b82525050565b7f4e487b71000000000000000000000000000000000000000000000000000000005f52602160045260245ffd5b6003811061097d5761097c61093f565b5b50565b5f81905061098d8261096c565b919050565b5f61099c82610980565b9050919050565b6109ac81610992565b82525050565b5f73ffffffffffffffffffffffffffffffffffffffff82169050919050565b5f6109db826109b2565b9050919050565b6109eb816109d1565b82525050565b5f60a0820190508181035f830152610a0981886108f8565b9050610a186020830187610930565b610a2560408301866109a3565b610a3260608301856109e2565b610a3f6080830184610930565b9695505050505050565b7f446562652064652073657220756e20636c69656e7465207061726120656a65635f8201527f75746172206573746120616363696f6e00000000000000000000000000000000602082015250565b5f610aa36030836108da565b9150610aae82610a49565b604082019050919050565b5f6020820190508181035f830152610ad081610a97565b9050919050565b7f456c2070726f647563746f206465626520657374617220616374697661646f005f82015250565b5f610b0b601f836108da565b9150610b1682610ad7565b602082019050919050565b5f6020820190508181035f830152610b3881610aff565b9050919050565b7f456c2070726f647563746f20646562652064652074656e6572206578697374655f8201527f6e63696173000000000000000000000000000000000000000000000000000000602082015250565b5f610b996025836108da565b9150610ba482610b3f565b604082019050919050565b5f6020820190508181035f830152610bc681610b8d565b9050919050565b7f44656265206465207472616e73666572697220756e2076616c6f72206d696e695f8201527f6d6f000000000000000000000000000000000000000000000000000000000000602082015250565b5f610c276022836108da565b9150610c3282610bcd565b604082019050919050565b5f6020820190508181035f830152610c5481610c1b565b9050919050565b7f4e487b71000000000000000000000000000000000000000000000000000000005f52601160045260245ffd5b5f610c9282610642565b91505f8203610ca457610ca3610c5b565b5b600182039050919050565b7f4e487b71000000000000000000000000000000000000000000000000000000005f52602260045260245ffd5b5f6002820490506001821680610cf357607f821691505b602082108103610d0657610d05610caf565b5b50919050565b5f819050815f5260205f209050919050565b5f6020601f8301049050919050565b5f82821b905092915050565b5f60088302610d687fffffffffffffffffffffffffffffffffffffffffffffffffffffffffffffffff82610d2d565b610d728683610d2d565b95508019841693508086168417925050509392505050565b5f819050919050565b5f610dad610da8610da384610642565b610d8a565b610642565b9050919050565b5f819050919050565b610dc683610d93565b610dda610dd282610db4565b848454610d39565b825550505050565b5f90565b610dee610de2565b610df9818484610dbd565b505050565b5b81811015610e1c57610e115f82610de6565b600181019050610dff565b5050565b601f821115610e6157610e3281610d0c565b610e3b84610d1e565b81016020851015610e4a578190505b610e5e610e5685610d1e565b830182610dfe565b50505b505050565b5f82821c905092915050565b5f610e815f1984600802610e66565b1980831691505092915050565b5f610e998383610e72565b9150826002028217905092915050565b610eb2826108d0565b67ffffffffffffffff811115610ecb57610eca6106b8565b5b610ed58254610cdc565b610ee0828285610e20565b5f60209050601f831160018114610f11575f8415610eff578287015190505b610f098582610e8e565b865550610f70565b601f198416610f1f86610d0c565b5f5b82811015610f4657848901518255600182019150602085019450602081019050610f21565b86831015610f635784890151610f5f601f891682610e72565b8355505b6001600288020188555050505b505050505050565b7f446562652064652073657220756e2063726561646f72207061726120656a65635f8201527f75746172206573746120616363696f6e00000000000000000000000000000000602082015250565b5f610fd26030836108da565b9150610fdd82610f78565b604082019050919050565b5f6020820190508181035f830152610fff81610fc6565b905091905056fea2646970667358221220d5029cc93562c51187087b563d5871c8985bf0d98b72e8c25e04463952d4566864736f6c634300081a0033",
					"opcodes": "PUSH1 0x80 PUSH1 0x40 MSTORE CALLVALUE DUP1 ISZERO PUSH1 0xE JUMPI PUSH0 DUP1 REVERT JUMPDEST POP PUSH2 0x103C DUP1 PUSH2 0x1C PUSH0 CODECOPY PUSH0 RETURN INVALID PUSH1 0x80 PUSH1 0x40 MSTORE PUSH1 0x4 CALLDATASIZE LT PUSH2 0x3E JUMPI PUSH0 CALLDATALOAD PUSH1 0xE0 SHR DUP1 PUSH4 0x2BCD335 EQ PUSH2 0x42 JUMPI DUP1 PUSH4 0x445FF3DC EQ PUSH2 0x5E JUMPI DUP1 PUSH4 0x979A01DD EQ PUSH2 0x86 JUMPI DUP1 PUSH4 0x99553636 EQ PUSH2 0xAE JUMPI JUMPDEST PUSH0 DUP1 REVERT JUMPDEST PUSH2 0x5C PUSH1 0x4 DUP1 CALLDATASIZE SUB DUP2 ADD SWAP1 PUSH2 0x57 SWAP2 SWAP1 PUSH2 0x675 JUMP JUMPDEST PUSH2 0xEE JUMP JUMPDEST STOP JUMPDEST CALLVALUE DUP1 ISZERO PUSH2 0x69 JUMPI PUSH0 DUP1 REVERT JUMPDEST POP PUSH2 0x84 PUSH1 0x4 DUP1 CALLDATASIZE SUB DUP2 ADD SWAP1 PUSH2 0x7F SWAP2 SWAP1 PUSH2 0x7FF JUMP JUMPDEST PUSH2 0x366 JUMP JUMPDEST STOP JUMPDEST CALLVALUE DUP1 ISZERO PUSH2 0x91 JUMPI PUSH0 DUP1 REVERT JUMPDEST POP PUSH2 0xAC PUSH1 0x4 DUP1 CALLDATASIZE SUB DUP2 ADD SWAP1 PUSH2 0xA7 SWAP2 SWAP1 PUSH2 0x892 JUMP JUMPDEST PUSH2 0x46D JUMP JUMPDEST STOP JUMPDEST CALLVALUE DUP1 ISZERO PUSH2 0xB9 JUMPI PUSH0 DUP1 REVERT JUMPDEST POP PUSH2 0xD4 PUSH1 0x4 DUP1 CALLDATASIZE SUB DUP2 ADD SWAP1 PUSH2 0xCF SWAP2 SWAP1 PUSH2 0x675 JUMP JUMPDEST PUSH2 0x54E JUMP JUMPDEST PUSH1 0x40 MLOAD PUSH2 0xE5 SWAP6 SWAP5 SWAP4 SWAP3 SWAP2 SWAP1 PUSH2 0x9F1 JUMP JUMPDEST PUSH1 0x40 MLOAD DUP1 SWAP2 SUB SWAP1 RETURN JUMPDEST DUP1 PUSH0 DUP1 DUP3 DUP2 MSTORE PUSH1 0x20 ADD SWAP1 DUP2 MSTORE PUSH1 0x20 ADD PUSH0 KECCAK256 PUSH1 0x2 ADD PUSH1 0x1 SWAP1 SLOAD SWAP1 PUSH2 0x100 EXP SWAP1 DIV PUSH20 0xFFFFFFFFFFFFFFFFFFFFFFFFFFFFFFFFFFFFFFFF AND PUSH20 0xFFFFFFFFFFFFFFFFFFFFFFFFFFFFFFFFFFFFFFFF AND CALLER PUSH20 0xFFFFFFFFFFFFFFFFFFFFFFFFFFFFFFFFFFFFFFFF AND SUB PUSH2 0x190 JUMPI PUSH1 0x40 MLOAD PUSH32 0x8C379A000000000000000000000000000000000000000000000000000000000 DUP2 MSTORE PUSH1 0x4 ADD PUSH2 0x187 SWAP1 PUSH2 0xAB9 JUMP JUMPDEST PUSH1 0x40 MLOAD DUP1 SWAP2 SUB SWAP1 REVERT JUMPDEST DUP2 PUSH1 0x1 PUSH1 0x2 DUP2 GT ISZERO PUSH2 0x1A5 JUMPI PUSH2 0x1A4 PUSH2 0x93F JUMP JUMPDEST JUMPDEST PUSH0 DUP1 DUP4 DUP2 MSTORE PUSH1 0x20 ADD SWAP1 DUP2 MSTORE PUSH1 0x20 ADD PUSH0 KECCAK256 PUSH1 0x2 ADD PUSH0 SWAP1 SLOAD SWAP1 PUSH2 0x100 EXP SWAP1 DIV PUSH1 0xFF AND PUSH1 0x2 DUP2 GT ISZERO PUSH2 0x1D7 JUMPI PUSH2 0x1D6 PUSH2 0x93F JUMP JUMPDEST JUMPDEST SUB PUSH2 0x217 JUMPI PUSH1 0x40 MLOAD PUSH32 0x8C379A000000000000000000000000000000000000000000000000000000000 DUP2 MSTORE PUSH1 0x4 ADD PUSH2 0x20E SWAP1 PUSH2 0xB21 JUMP JUMPDEST PUSH1 0x40 MLOAD DUP1 SWAP2 SUB SWAP1 REVERT JUMPDEST PUSH0 DUP1 PUSH0 DUP4 DUP2 MSTORE PUSH1 0x20 ADD SWAP1 DUP2 MSTORE PUSH1 0x20 ADD PUSH0 KECCAK256 PUSH1 0x1 ADD SLOAD GT PUSH2 0x26C JUMPI PUSH1 0x40 MLOAD PUSH32 0x8C379A000000000000000000000000000000000000000000000000000000000 DUP2 MSTORE PUSH1 0x4 ADD PUSH2 0x263 SWAP1 PUSH2 0xBAF JUMP JUMPDEST PUSH1 0x40 MLOAD DUP1 SWAP2 SUB SWAP1 REVERT JUMPDEST PUSH0 DUP1 DUP5 DUP2 MSTORE PUSH1 0x20 ADD SWAP1 DUP2 MSTORE PUSH1 0x20 ADD PUSH0 KECCAK256 PUSH1 0x3 ADD SLOAD CALLVALUE LT ISZERO PUSH2 0x2C2 JUMPI PUSH1 0x40 MLOAD PUSH32 0x8C379A000000000000000000000000000000000000000000000000000000000 DUP2 MSTORE PUSH1 0x4 ADD PUSH2 0x2B9 SWAP1 PUSH2 0xC3D JUMP JUMPDEST PUSH1 0x40 MLOAD DUP1 SWAP2 SUB SWAP1 REVERT JUMPDEST PUSH0 DUP1 DUP5 DUP2 MSTORE PUSH1 0x20 ADD SWAP1 DUP2 MSTORE PUSH1 0x20 ADD PUSH0 KECCAK256 PUSH1 0x2 ADD PUSH1 0x1 SWAP1 SLOAD SWAP1 PUSH2 0x100 EXP SWAP1 DIV PUSH20 0xFFFFFFFFFFFFFFFFFFFFFFFFFFFFFFFFFFFFFFFF AND PUSH20 0xFFFFFFFFFFFFFFFFFFFFFFFFFFFFFFFFFFFFFFFF AND PUSH2 0x8FC CALLVALUE SWAP1 DUP2 ISZERO MUL SWAP1 PUSH1 0x40 MLOAD PUSH0 PUSH1 0x40 MLOAD DUP1 DUP4 SUB DUP2 DUP6 DUP9 DUP9 CALL SWAP4 POP POP POP POP ISZERO DUP1 ISZERO PUSH2 0x338 JUMPI RETURNDATASIZE PUSH0 DUP1 RETURNDATACOPY RETURNDATASIZE PUSH0 REVERT JUMPDEST POP PUSH0 DUP1 DUP5 DUP2 MSTORE PUSH1 0x20 ADD SWAP1 DUP2 MSTORE PUSH1 0x20 ADD PUSH0 KECCAK256 PUSH1 0x1 ADD PUSH0 DUP2 SLOAD DUP1 SWAP3 SWAP2 SWAP1 PUSH2 0x35C SWAP1 PUSH2 0xC88 JUMP JUMPDEST SWAP2 SWAP1 POP SSTORE POP POP POP POP JUMP JUMPDEST PUSH1 0x40 MLOAD DUP1 PUSH1 0xA0 ADD PUSH1 0x40 MSTORE DUP1 DUP6 DUP2 MSTORE PUSH1 0x20 ADD DUP4 DUP2 MSTORE PUSH1 0x20 ADD DUP5 PUSH1 0x2 DUP2 GT ISZERO PUSH2 0x390 JUMPI PUSH2 0x38F PUSH2 0x93F JUMP JUMPDEST JUMPDEST DUP2 MSTORE PUSH1 0x20 ADD CALLER PUSH20 0xFFFFFFFFFFFFFFFFFFFFFFFFFFFFFFFFFFFFFFFF AND DUP2 MSTORE PUSH1 0x20 ADD DUP3 DUP2 MSTORE POP PUSH0 DUP1 DUP8 DUP2 MSTORE PUSH1 0x20 ADD SWAP1 DUP2 MSTORE PUSH1 0x20 ADD PUSH0 KECCAK256 PUSH0 DUP3 ADD MLOAD DUP2 PUSH0 ADD SWAP1 DUP2 PUSH2 0x3D8 SWAP2 SWAP1 PUSH2 0xEA9 JUMP JUMPDEST POP PUSH1 0x20 DUP3 ADD MLOAD DUP2 PUSH1 0x1 ADD SSTORE PUSH1 0x40 DUP3 ADD MLOAD DUP2 PUSH1 0x2 ADD PUSH0 PUSH2 0x100 EXP DUP2 SLOAD DUP2 PUSH1 0xFF MUL NOT AND SWAP1 DUP4 PUSH1 0x2 DUP2 GT ISZERO PUSH2 0x40D JUMPI PUSH2 0x40C PUSH2 0x93F JUMP JUMPDEST JUMPDEST MUL OR SWAP1 SSTORE POP PUSH1 0x60 DUP3 ADD MLOAD DUP2 PUSH1 0x2 ADD PUSH1 0x1 PUSH2 0x100 EXP DUP2 SLOAD DUP2 PUSH20 0xFFFFFFFFFFFFFFFFFFFFFFFFFFFFFFFFFFFFFFFF MUL NOT AND SWAP1 DUP4 PUSH20 0xFFFFFFFFFFFFFFFFFFFFFFFFFFFFFFFFFFFFFFFF AND MUL OR SWAP1 SSTORE POP PUSH1 0x80 DUP3 ADD MLOAD DUP2 PUSH1 0x3 ADD SSTORE SWAP1 POP POP POP POP POP POP POP JUMP JUMPDEST DUP2 PUSH0 DUP1 DUP3 DUP2 MSTORE PUSH1 0x20 ADD SWAP1 DUP2 MSTORE PUSH1 0x20 ADD PUSH0 KECCAK256 PUSH1 0x2 ADD PUSH1 0x1 SWAP1 SLOAD SWAP1 PUSH2 0x100 EXP SWAP1 DIV PUSH20 0xFFFFFFFFFFFFFFFFFFFFFFFFFFFFFFFFFFFFFFFF AND PUSH20 0xFFFFFFFFFFFFFFFFFFFFFFFFFFFFFFFFFFFFFFFF AND CALLER PUSH20 0xFFFFFFFFFFFFFFFFFFFFFFFFFFFFFFFFFFFFFFFF AND EQ PUSH2 0x50F JUMPI PUSH1 0x40 MLOAD PUSH32 0x8C379A000000000000000000000000000000000000000000000000000000000 DUP2 MSTORE PUSH1 0x4 ADD PUSH2 0x506 SWAP1 PUSH2 0xFE8 JUMP JUMPDEST PUSH1 0x40 MLOAD DUP1 SWAP2 SUB SWAP1 REVERT JUMPDEST DUP2 PUSH0 DUP1 DUP6 DUP2 MSTORE PUSH1 0x20 ADD SWAP1 DUP2 MSTORE PUSH1 0x20 ADD PUSH0 KECCAK256 PUSH1 0x2 ADD PUSH0 PUSH2 0x100 EXP DUP2 SLOAD DUP2 PUSH1 0xFF MUL NOT AND SWAP1 DUP4 PUSH1 0x2 DUP2 GT ISZERO PUSH2 0x544 JUMPI PUSH2 0x543 PUSH2 0x93F JUMP JUMPDEST JUMPDEST MUL OR SWAP1 SSTORE POP POP POP POP JUMP JUMPDEST PUSH0 PUSH1 0x20 MSTORE DUP1 PUSH0 MSTORE PUSH1 0x40 PUSH0 KECCAK256 PUSH0 SWAP2 POP SWAP1 POP DUP1 PUSH0 ADD DUP1 SLOAD PUSH2 0x56C SWAP1 PUSH2 0xCDC JUMP JUMPDEST DUP1 PUSH1 0x1F ADD PUSH1 0x20 DUP1 SWAP2 DIV MUL PUSH1 0x20 ADD PUSH1 0x40 MLOAD SWAP1 DUP2 ADD PUSH1 0x40 MSTORE DUP1 SWAP3 SWAP2 SWAP1 DUP2 DUP2 MSTORE PUSH1 0x20 ADD DUP3 DUP1 SLOAD PUSH2 0x598 SWAP1 PUSH2 0xCDC JUMP JUMPDEST DUP1 ISZERO PUSH2 0x5E3 JUMPI DUP1 PUSH1 0x1F LT PUSH2 0x5BA JUMPI PUSH2 0x100 DUP1 DUP4 SLOAD DIV MUL DUP4 MSTORE SWAP2 PUSH1 0x20 ADD SWAP2 PUSH2 0x5E3 JUMP JUMPDEST DUP3 ADD SWAP2 SWAP1 PUSH0 MSTORE PUSH1 0x20 PUSH0 KECCAK256 SWAP1 JUMPDEST DUP2 SLOAD DUP2 MSTORE SWAP1 PUSH1 0x1 ADD SWAP1 PUSH1 0x20 ADD DUP1 DUP4 GT PUSH2 0x5C6 JUMPI DUP3 SWAP1 SUB PUSH1 0x1F AND DUP3 ADD SWAP2 JUMPDEST POP POP POP POP POP SWAP1 DUP1 PUSH1 0x1 ADD SLOAD SWAP1 DUP1 PUSH1 0x2 ADD PUSH0 SWAP1 SLOAD SWAP1 PUSH2 0x100 EXP SWAP1 DIV PUSH1 0xFF AND SWAP1 DUP1 PUSH1 0x2 ADD PUSH1 0x1 SWAP1 SLOAD SWAP1 PUSH2 0x100 EXP SWAP1 DIV PUSH20 0xFFFFFFFFFFFFFFFFFFFFFFFFFFFFFFFFFFFFFFFF AND SWAP1 DUP1 PUSH1 0x3 ADD SLOAD SWAP1 POP DUP6 JUMP JUMPDEST PUSH0 PUSH1 0x40 MLOAD SWAP1 POP SWAP1 JUMP JUMPDEST PUSH0 DUP1 REVERT JUMPDEST PUSH0 DUP1 REVERT JUMPDEST PUSH0 DUP2 SWAP1 POP SWAP2 SWAP1 POP JUMP JUMPDEST PUSH2 0x654 DUP2 PUSH2 0x642 JUMP JUMPDEST DUP2 EQ PUSH2 0x65E JUMPI PUSH0 DUP1 REVERT JUMPDEST POP JUMP JUMPDEST PUSH0 DUP2 CALLDATALOAD SWAP1 POP PUSH2 0x66F DUP2 PUSH2 0x64B JUMP JUMPDEST SWAP3 SWAP2 POP POP JUMP JUMPDEST PUSH0 PUSH1 0x20 DUP3 DUP5 SUB SLT ISZERO PUSH2 0x68A JUMPI PUSH2 0x689 PUSH2 0x63A JUMP JUMPDEST JUMPDEST PUSH0 PUSH2 0x697 DUP5 DUP3 DUP6 ADD PUSH2 0x661 JUMP JUMPDEST SWAP2 POP POP SWAP3 SWAP2 POP POP JUMP JUMPDEST PUSH0 DUP1 REVERT JUMPDEST PUSH0 DUP1 REVERT JUMPDEST PUSH0 PUSH1 0x1F NOT PUSH1 0x1F DUP4 ADD AND SWAP1 POP SWAP2 SWAP1 POP JUMP JUMPDEST PUSH32 0x4E487B7100000000000000000000000000000000000000000000000000000000 PUSH0 MSTORE PUSH1 0x41 PUSH1 0x4 MSTORE PUSH1 0x24 PUSH0 REVERT JUMPDEST PUSH2 0x6EE DUP3 PUSH2 0x6A8 JUMP JUMPDEST DUP2 ADD DUP2 DUP2 LT PUSH8 0xFFFFFFFFFFFFFFFF DUP3 GT OR ISZERO PUSH2 0x70D JUMPI PUSH2 0x70C PUSH2 0x6B8 JUMP JUMPDEST JUMPDEST DUP1 PUSH1 0x40 MSTORE POP POP POP JUMP JUMPDEST PUSH0 PUSH2 0x71F PUSH2 0x631 JUMP JUMPDEST SWAP1 POP PUSH2 0x72B DUP3 DUP3 PUSH2 0x6E5 JUMP JUMPDEST SWAP2 SWAP1 POP JUMP JUMPDEST PUSH0 PUSH8 0xFFFFFFFFFFFFFFFF DUP3 GT ISZERO PUSH2 0x74A JUMPI PUSH2 0x749 PUSH2 0x6B8 JUMP JUMPDEST JUMPDEST PUSH2 0x753 DUP3 PUSH2 0x6A8 JUMP JUMPDEST SWAP1 POP PUSH1 0x20 DUP2 ADD SWAP1 POP SWAP2 SWAP1 POP JUMP JUMPDEST DUP3 DUP2 DUP4 CALLDATACOPY PUSH0 DUP4 DUP4 ADD MSTORE POP POP POP JUMP JUMPDEST PUSH0 PUSH2 0x780 PUSH2 0x77B DUP5 PUSH2 0x730 JUMP JUMPDEST PUSH2 0x716 JUMP JUMPDEST SWAP1 POP DUP3 DUP2 MSTORE PUSH1 0x20 DUP2 ADD DUP5 DUP5 DUP5 ADD GT ISZERO PUSH2 0x79C JUMPI PUSH2 0x79B PUSH2 0x6A4 JUMP JUMPDEST JUMPDEST PUSH2 0x7A7 DUP5 DUP3 DUP6 PUSH2 0x760 JUMP JUMPDEST POP SWAP4 SWAP3 POP POP POP JUMP JUMPDEST PUSH0 DUP3 PUSH1 0x1F DUP4 ADD SLT PUSH2 0x7C3 JUMPI PUSH2 0x7C2 PUSH2 0x6A0 JUMP JUMPDEST JUMPDEST DUP2 CALLDATALOAD PUSH2 0x7D3 DUP5 DUP3 PUSH1 0x20 DUP7 ADD PUSH2 0x76E JUMP JUMPDEST SWAP2 POP POP SWAP3 SWAP2 POP POP JUMP JUMPDEST PUSH1 0x3 DUP2 LT PUSH2 0x7E8 JUMPI PUSH0 DUP1 REVERT JUMPDEST POP JUMP JUMPDEST PUSH0 DUP2 CALLDATALOAD SWAP1 POP PUSH2 0x7F9 DUP2 PUSH2 0x7DC JUMP JUMPDEST SWAP3 SWAP2 POP POP JUMP JUMPDEST PUSH0 DUP1 PUSH0 DUP1 PUSH0 PUSH1 0xA0 DUP7 DUP9 SUB SLT ISZERO PUSH2 0x818 JUMPI PUSH2 0x817 PUSH2 0x63A JUMP JUMPDEST JUMPDEST PUSH0 PUSH2 0x825 DUP9 DUP3 DUP10 ADD PUSH2 0x661 JUMP JUMPDEST SWAP6 POP POP PUSH1 0x20 DUP7 ADD CALLDATALOAD PUSH8 0xFFFFFFFFFFFFFFFF DUP2 GT ISZERO PUSH2 0x846 JUMPI PUSH2 0x845 PUSH2 0x63E JUMP JUMPDEST JUMPDEST PUSH2 0x852 DUP9 DUP3 DUP10 ADD PUSH2 0x7AF JUMP JUMPDEST SWAP5 POP POP PUSH1 0x40 PUSH2 0x863 DUP9 DUP3 DUP10 ADD PUSH2 0x7EB JUMP JUMPDEST SWAP4 POP POP PUSH1 0x60 PUSH2 0x874 DUP9 DUP3 DUP10 ADD PUSH2 0x661 JUMP JUMPDEST SWAP3 POP POP PUSH1 0x80 PUSH2 0x885 DUP9 DUP3 DUP10 ADD PUSH2 0x661 JUMP JUMPDEST SWAP2 POP POP SWAP3 SWAP6 POP SWAP3 SWAP6 SWAP1 SWAP4 POP JUMP JUMPDEST PUSH0 DUP1 PUSH1 0x40 DUP4 DUP6 SUB SLT ISZERO PUSH2 0x8A8 JUMPI PUSH2 0x8A7 PUSH2 0x63A JUMP JUMPDEST JUMPDEST PUSH0 PUSH2 0x8B5 DUP6 DUP3 DUP7 ADD PUSH2 0x661 JUMP JUMPDEST SWAP3 POP POP PUSH1 0x20 PUSH2 0x8C6 DUP6 DUP3 DUP7 ADD PUSH2 0x7EB JUMP JUMPDEST SWAP2 POP POP SWAP3 POP SWAP3 SWAP1 POP JUMP JUMPDEST PUSH0 DUP2 MLOAD SWAP1 POP SWAP2 SWAP1 POP JUMP JUMPDEST PUSH0 DUP3 DUP3 MSTORE PUSH1 0x20 DUP3 ADD SWAP1 POP SWAP3 SWAP2 POP POP JUMP JUMPDEST DUP3 DUP2 DUP4 MCOPY PUSH0 DUP4 DUP4 ADD MSTORE POP POP POP JUMP JUMPDEST PUSH0 PUSH2 0x902 DUP3 PUSH2 0x8D0 JUMP JUMPDEST PUSH2 0x90C DUP2 DUP6 PUSH2 0x8DA JUMP JUMPDEST SWAP4 POP PUSH2 0x91C DUP2 DUP6 PUSH1 0x20 DUP7 ADD PUSH2 0x8EA JUMP JUMPDEST PUSH2 0x925 DUP2 PUSH2 0x6A8 JUMP JUMPDEST DUP5 ADD SWAP2 POP POP SWAP3 SWAP2 POP POP JUMP JUMPDEST PUSH2 0x939 DUP2 PUSH2 0x642 JUMP JUMPDEST DUP3 MSTORE POP POP JUMP JUMPDEST PUSH32 0x4E487B7100000000000000000000000000000000000000000000000000000000 PUSH0 MSTORE PUSH1 0x21 PUSH1 0x4 MSTORE PUSH1 0x24 PUSH0 REVERT JUMPDEST PUSH1 0x3 DUP2 LT PUSH2 0x97D JUMPI PUSH2 0x97C PUSH2 0x93F JUMP JUMPDEST JUMPDEST POP JUMP JUMPDEST PUSH0 DUP2 SWAP1 POP PUSH2 0x98D DUP3 PUSH2 0x96C JUMP JUMPDEST SWAP2 SWAP1 POP JUMP JUMPDEST PUSH0 PUSH2 0x99C DUP3 PUSH2 0x980 JUMP JUMPDEST SWAP1 POP SWAP2 SWAP1 POP JUMP JUMPDEST PUSH2 0x9AC DUP2 PUSH2 0x992 JUMP JUMPDEST DUP3 MSTORE POP POP JUMP JUMPDEST PUSH0 PUSH20 0xFFFFFFFFFFFFFFFFFFFFFFFFFFFFFFFFFFFFFFFF DUP3 AND SWAP1 POP SWAP2 SWAP1 POP JUMP JUMPDEST PUSH0 PUSH2 0x9DB DUP3 PUSH2 0x9B2 JUMP JUMPDEST SWAP1 POP SWAP2 SWAP1 POP JUMP JUMPDEST PUSH2 0x9EB DUP2 PUSH2 0x9D1 JUMP JUMPDEST DUP3 MSTORE POP POP JUMP JUMPDEST PUSH0 PUSH1 0xA0 DUP3 ADD SWAP1 POP DUP2 DUP2 SUB PUSH0 DUP4 ADD MSTORE PUSH2 0xA09 DUP2 DUP9 PUSH2 0x8F8 JUMP JUMPDEST SWAP1 POP PUSH2 0xA18 PUSH1 0x20 DUP4 ADD DUP8 PUSH2 0x930 JUMP JUMPDEST PUSH2 0xA25 PUSH1 0x40 DUP4 ADD DUP7 PUSH2 0x9A3 JUMP JUMPDEST PUSH2 0xA32 PUSH1 0x60 DUP4 ADD DUP6 PUSH2 0x9E2 JUMP JUMPDEST PUSH2 0xA3F PUSH1 0x80 DUP4 ADD DUP5 PUSH2 0x930 JUMP JUMPDEST SWAP7 SWAP6 POP POP POP POP POP POP JUMP JUMPDEST PUSH32 0x446562652064652073657220756E20636C69656E7465207061726120656A6563 PUSH0 DUP3 ADD MSTORE PUSH32 0x75746172206573746120616363696F6E00000000000000000000000000000000 PUSH1 0x20 DUP3 ADD MSTORE POP JUMP JUMPDEST PUSH0 PUSH2 0xAA3 PUSH1 0x30 DUP4 PUSH2 0x8DA JUMP JUMPDEST SWAP2 POP PUSH2 0xAAE DUP3 PUSH2 0xA49 JUMP JUMPDEST PUSH1 0x40 DUP3 ADD SWAP1 POP SWAP2 SWAP1 POP JUMP JUMPDEST PUSH0 PUSH1 0x20 DUP3 ADD SWAP1 POP DUP2 DUP2 SUB PUSH0 DUP4 ADD MSTORE PUSH2 0xAD0 DUP2 PUSH2 0xA97 JUMP JUMPDEST SWAP1 POP SWAP2 SWAP1 POP JUMP JUMPDEST PUSH32 0x456C2070726F647563746F206465626520657374617220616374697661646F00 PUSH0 DUP3 ADD MSTORE POP JUMP JUMPDEST PUSH0 PUSH2 0xB0B PUSH1 0x1F DUP4 PUSH2 0x8DA JUMP JUMPDEST SWAP2 POP PUSH2 0xB16 DUP3 PUSH2 0xAD7 JUMP JUMPDEST PUSH1 0x20 DUP3 ADD SWAP1 POP SWAP2 SWAP1 POP JUMP JUMPDEST PUSH0 PUSH1 0x20 DUP3 ADD SWAP1 POP DUP2 DUP2 SUB PUSH0 DUP4 ADD MSTORE PUSH2 0xB38 DUP2 PUSH2 0xAFF JUMP JUMPDEST SWAP1 POP SWAP2 SWAP1 POP JUMP JUMPDEST PUSH32 0x456C2070726F647563746F20646562652064652074656E657220657869737465 PUSH0 DUP3 ADD MSTORE PUSH32 0x6E63696173000000000000000000000000000000000000000000000000000000 PUSH1 0x20 DUP3 ADD MSTORE POP JUMP JUMPDEST PUSH0 PUSH2 0xB99 PUSH1 0x25 DUP4 PUSH2 0x8DA JUMP JUMPDEST SWAP2 POP PUSH2 0xBA4 DUP3 PUSH2 0xB3F JUMP JUMPDEST PUSH1 0x40 DUP3 ADD SWAP1 POP SWAP2 SWAP1 POP JUMP JUMPDEST PUSH0 PUSH1 0x20 DUP3 ADD SWAP1 POP DUP2 DUP2 SUB PUSH0 DUP4 ADD MSTORE PUSH2 0xBC6 DUP2 PUSH2 0xB8D JUMP JUMPDEST SWAP1 POP SWAP2 SWAP1 POP JUMP JUMPDEST PUSH32 0x44656265206465207472616E73666572697220756E2076616C6F72206D696E69 PUSH0 DUP3 ADD MSTORE PUSH32 0x6D6F000000000000000000000000000000000000000000000000000000000000 PUSH1 0x20 DUP3 ADD MSTORE POP JUMP JUMPDEST PUSH0 PUSH2 0xC27 PUSH1 0x22 DUP4 PUSH2 0x8DA JUMP JUMPDEST SWAP2 POP PUSH2 0xC32 DUP3 PUSH2 0xBCD JUMP JUMPDEST PUSH1 0x40 DUP3 ADD SWAP1 POP SWAP2 SWAP1 POP JUMP JUMPDEST PUSH0 PUSH1 0x20 DUP3 ADD SWAP1 POP DUP2 DUP2 SUB PUSH0 DUP4 ADD MSTORE PUSH2 0xC54 DUP2 PUSH2 0xC1B JUMP JUMPDEST SWAP1 POP SWAP2 SWAP1 POP JUMP JUMPDEST PUSH32 0x4E487B7100000000000000000000000000000000000000000000000000000000 PUSH0 MSTORE PUSH1 0x11 PUSH1 0x4 MSTORE PUSH1 0x24 PUSH0 REVERT JUMPDEST PUSH0 PUSH2 0xC92 DUP3 PUSH2 0x642 JUMP JUMPDEST SWAP2 POP PUSH0 DUP3 SUB PUSH2 0xCA4 JUMPI PUSH2 0xCA3 PUSH2 0xC5B JUMP JUMPDEST JUMPDEST PUSH1 0x1 DUP3 SUB SWAP1 POP SWAP2 SWAP1 POP JUMP JUMPDEST PUSH32 0x4E487B7100000000000000000000000000000000000000000000000000000000 PUSH0 MSTORE PUSH1 0x22 PUSH1 0x4 MSTORE PUSH1 0x24 PUSH0 REVERT JUMPDEST PUSH0 PUSH1 0x2 DUP3 DIV SWAP1 POP PUSH1 0x1 DUP3 AND DUP1 PUSH2 0xCF3 JUMPI PUSH1 0x7F DUP3 AND SWAP2 POP JUMPDEST PUSH1 0x20 DUP3 LT DUP2 SUB PUSH2 0xD06 JUMPI PUSH2 0xD05 PUSH2 0xCAF JUMP JUMPDEST JUMPDEST POP SWAP2 SWAP1 POP JUMP JUMPDEST PUSH0 DUP2 SWAP1 POP DUP2 PUSH0 MSTORE PUSH1 0x20 PUSH0 KECCAK256 SWAP1 POP SWAP2 SWAP1 POP JUMP JUMPDEST PUSH0 PUSH1 0x20 PUSH1 0x1F DUP4 ADD DIV SWAP1 POP SWAP2 SWAP1 POP JUMP JUMPDEST PUSH0 DUP3 DUP3 SHL SWAP1 POP SWAP3 SWAP2 POP POP JUMP JUMPDEST PUSH0 PUSH1 0x8 DUP4 MUL PUSH2 0xD68 PUSH32 0xFFFFFFFFFFFFFFFFFFFFFFFFFFFFFFFFFFFFFFFFFFFFFFFFFFFFFFFFFFFFFFFF DUP3 PUSH2 0xD2D JUMP JUMPDEST PUSH2 0xD72 DUP7 DUP4 PUSH2 0xD2D JUMP JUMPDEST SWAP6 POP DUP1 NOT DUP5 AND SWAP4 POP DUP1 DUP7 AND DUP5 OR SWAP3 POP POP POP SWAP4 SWAP3 POP POP POP JUMP JUMPDEST PUSH0 DUP2 SWAP1 POP SWAP2 SWAP1 POP JUMP JUMPDEST PUSH0 PUSH2 0xDAD PUSH2 0xDA8 PUSH2 0xDA3 DUP5 PUSH2 0x642 JUMP JUMPDEST PUSH2 0xD8A JUMP JUMPDEST PUSH2 0x642 JUMP JUMPDEST SWAP1 POP SWAP2 SWAP1 POP JUMP JUMPDEST PUSH0 DUP2 SWAP1 POP SWAP2 SWAP1 POP JUMP JUMPDEST PUSH2 0xDC6 DUP4 PUSH2 0xD93 JUMP JUMPDEST PUSH2 0xDDA PUSH2 0xDD2 DUP3 PUSH2 0xDB4 JUMP JUMPDEST DUP5 DUP5 SLOAD PUSH2 0xD39 JUMP JUMPDEST DUP3 SSTORE POP POP POP POP JUMP JUMPDEST PUSH0 SWAP1 JUMP JUMPDEST PUSH2 0xDEE PUSH2 0xDE2 JUMP JUMPDEST PUSH2 0xDF9 DUP2 DUP5 DUP5 PUSH2 0xDBD JUMP JUMPDEST POP POP POP JUMP JUMPDEST JUMPDEST DUP2 DUP2 LT ISZERO PUSH2 0xE1C JUMPI PUSH2 0xE11 PUSH0 DUP3 PUSH2 0xDE6 JUMP JUMPDEST PUSH1 0x1 DUP2 ADD SWAP1 POP PUSH2 0xDFF JUMP JUMPDEST POP POP JUMP JUMPDEST PUSH1 0x1F DUP3 GT ISZERO PUSH2 0xE61 JUMPI PUSH2 0xE32 DUP2 PUSH2 0xD0C JUMP JUMPDEST PUSH2 0xE3B DUP5 PUSH2 0xD1E JUMP JUMPDEST DUP2 ADD PUSH1 0x20 DUP6 LT ISZERO PUSH2 0xE4A JUMPI DUP2 SWAP1 POP JUMPDEST PUSH2 0xE5E PUSH2 0xE56 DUP6 PUSH2 0xD1E JUMP JUMPDEST DUP4 ADD DUP3 PUSH2 0xDFE JUMP JUMPDEST POP POP JUMPDEST POP POP POP JUMP JUMPDEST PUSH0 DUP3 DUP3 SHR SWAP1 POP SWAP3 SWAP2 POP POP JUMP JUMPDEST PUSH0 PUSH2 0xE81 PUSH0 NOT DUP5 PUSH1 0x8 MUL PUSH2 0xE66 JUMP JUMPDEST NOT DUP1 DUP4 AND SWAP2 POP POP SWAP3 SWAP2 POP POP JUMP JUMPDEST PUSH0 PUSH2 0xE99 DUP4 DUP4 PUSH2 0xE72 JUMP JUMPDEST SWAP2 POP DUP3 PUSH1 0x2 MUL DUP3 OR SWAP1 POP SWAP3 SWAP2 POP POP JUMP JUMPDEST PUSH2 0xEB2 DUP3 PUSH2 0x8D0 JUMP JUMPDEST PUSH8 0xFFFFFFFFFFFFFFFF DUP2 GT ISZERO PUSH2 0xECB JUMPI PUSH2 0xECA PUSH2 0x6B8 JUMP JUMPDEST JUMPDEST PUSH2 0xED5 DUP3 SLOAD PUSH2 0xCDC JUMP JUMPDEST PUSH2 0xEE0 DUP3 DUP3 DUP6 PUSH2 0xE20 JUMP JUMPDEST PUSH0 PUSH1 0x20 SWAP1 POP PUSH1 0x1F DUP4 GT PUSH1 0x1 DUP2 EQ PUSH2 0xF11 JUMPI PUSH0 DUP5 ISZERO PUSH2 0xEFF JUMPI DUP3 DUP8 ADD MLOAD SWAP1 POP JUMPDEST PUSH2 0xF09 DUP6 DUP3 PUSH2 0xE8E JUMP JUMPDEST DUP7 SSTORE POP PUSH2 0xF70 JUMP JUMPDEST PUSH1 0x1F NOT DUP5 AND PUSH2 0xF1F DUP7 PUSH2 0xD0C JUMP JUMPDEST PUSH0 JUMPDEST DUP3 DUP2 LT ISZERO PUSH2 0xF46 JUMPI DUP5 DUP10 ADD MLOAD DUP3 SSTORE PUSH1 0x1 DUP3 ADD SWAP2 POP PUSH1 0x20 DUP6 ADD SWAP5 POP PUSH1 0x20 DUP2 ADD SWAP1 POP PUSH2 0xF21 JUMP JUMPDEST DUP7 DUP4 LT ISZERO PUSH2 0xF63 JUMPI DUP5 DUP10 ADD MLOAD PUSH2 0xF5F PUSH1 0x1F DUP10 AND DUP3 PUSH2 0xE72 JUMP JUMPDEST DUP4 SSTORE POP JUMPDEST PUSH1 0x1 PUSH1 0x2 DUP9 MUL ADD DUP9 SSTORE POP POP POP JUMPDEST POP POP POP POP POP POP JUMP JUMPDEST PUSH32 0x446562652064652073657220756E2063726561646F72207061726120656A6563 PUSH0 DUP3 ADD MSTORE PUSH32 0x75746172206573746120616363696F6E00000000000000000000000000000000 PUSH1 0x20 DUP3 ADD MSTORE POP JUMP JUMPDEST PUSH0 PUSH2 0xFD2 PUSH1 0x30 DUP4 PUSH2 0x8DA JUMP JUMPDEST SWAP2 POP PUSH2 0xFDD DUP3 PUSH2 0xF78 JUMP JUMPDEST PUSH1 0x40 DUP3 ADD SWAP1 POP SWAP2 SWAP1 POP JUMP JUMPDEST PUSH0 PUSH1 0x20 DUP3 ADD SWAP1 POP DUP2 DUP2 SUB PUSH0 DUP4 ADD MSTORE PUSH2 0xFFF DUP2 PUSH2 0xFC6 JUMP JUMPDEST SWAP1 POP SWAP2 SWAP1 POP JUMP INVALID LOG2 PUSH5 0x6970667358 0x22 SLT KECCAK256 0xD5 MUL SWAP13 0xC9 CALLDATALOAD PUSH3 0xC51187 ADDMOD PUSH28 0x563D5871C8985BF0D98B72E8C25E04463952D4566864736F6C634300 ADDMOD BYTE STOP CALLER "
				},
				"gasEstimates": {
					"creation": {
						"codeDepositCost": "831200",
						"executionCost": "862",
						"totalCost": "832062"
					},
					"external": {
						"cambiarestado(uint256,uint8)": "27227",
						"comprar(uint256)": "infinite",
						"crearProducto(uint256,string,uint8,uint256,uint256)": "infinite",
						"productos(uint256)": "infinite"
					}
				},
				"methodIdentifiers": {
					"cambiarestado(uint256,uint8)": "979a01dd",
					"comprar(uint256)": "02bcd335",
					"crearProducto(uint256,string,uint8,uint256,uint256)": "445ff3dc",
					"productos(uint256)": "99553636"
				}
			},
			"storageLayout": {
				"storage": [
					{
						"astId": 10,
						"contract": "contracts/Product.sol:Tienda",
						"label": "productos",
						"offset": 0,
						"slot": "0",
						"type": "t_mapping(t_uint256,t_struct(Producto)22_storage)"
					}
				],
				"types": {
					"t_address_payable": {
						"encoding": "inplace",
						"label": "address payable",
						"numberOfBytes": "20"
					},
					"t_enum(Estado)5": {
						"encoding": "inplace",
						"label": "enum Tienda.Estado",
						"numberOfBytes": "1"
					},
					"t_mapping(t_uint256,t_struct(Producto)22_storage)": {
						"encoding": "mapping",
						"key": "t_uint256",
						"label": "mapping(uint256 => struct Tienda.Producto)",
						"numberOfBytes": "32",
						"value": "t_struct(Producto)22_storage"
					},
					"t_string_storage": {
						"encoding": "bytes",
						"label": "string",
						"numberOfBytes": "32"
					},
					"t_struct(Producto)22_storage": {
						"encoding": "inplace",
						"label": "struct Tienda.Producto",
						"members": [
							{
								"astId": 12,
								"contract": "contracts/Product.sol:Tienda",
								"label": "nombre",
								"offset": 0,
								"slot": "0",
								"type": "t_string_storage"
							},
							{
								"astId": 14,
								"contract": "contracts/Product.sol:Tienda",
								"label": "cantidad",
								"offset": 0,
								"slot": "1",
								"type": "t_uint256"
							},
							{
								"astId": 17,
								"contract": "contracts/Product.sol:Tienda",
								"label": "estado",
								"offset": 0,
								"slot": "2",
								"type": "t_enum(Estado)5"
							},
							{
								"astId": 19,
								"contract": "contracts/Product.sol:Tienda",
								"label": "creador",
								"offset": 1,
								"slot": "2",
								"type": "t_address_payable"
							},
							{
								"astId": 21,
								"contract": "contracts/Product.sol:Tienda",
								"label": "preciowei",
								"offset": 0,
								"slot": "3",
								"type": "t_uint256"
							}
						],
						"numberOfBytes": "128"
					},
					"t_uint256": {
						"encoding": "inplace",
						"label": "uint256",
						"numberOfBytes": "32"
					}
				}
			},
			"userdoc": {
				"kind": "user",
				"methods": {},
				"version": 1
			}
		}
	}
}